{
  "_format": "hh-sol-artifact-1",
  "contractName": "FootlinkMatch",
  "sourceName": "contracts/FootlinkMatch.sol",
  "abi": [
    {
      "inputs": [],
      "stateMutability": "nonpayable",
      "type": "constructor"
    },
    {
      "anonymous": false,
      "inputs": [
        {
          "indexed": true,
          "internalType": "address",
          "name": "owner",
          "type": "address"
        },
        {
          "indexed": true,
          "internalType": "address",
          "name": "approved",
          "type": "address"
        },
        {
          "indexed": true,
          "internalType": "uint256",
          "name": "tokenId",
          "type": "uint256"
        }
      ],
      "name": "Approval",
      "type": "event"
    },
    {
      "anonymous": false,
      "inputs": [
        {
          "indexed": true,
          "internalType": "address",
          "name": "owner",
          "type": "address"
        },
        {
          "indexed": true,
          "internalType": "address",
          "name": "operator",
          "type": "address"
        },
        {
          "indexed": false,
          "internalType": "bool",
          "name": "approved",
          "type": "bool"
        }
      ],
      "name": "ApprovalForAll",
      "type": "event"
    },
    {
      "anonymous": false,
      "inputs": [
        {
          "indexed": false,
          "internalType": "uint256",
          "name": "playerId",
          "type": "uint256"
        }
      ],
      "name": "LevelUp",
      "type": "event"
    },
    {
      "anonymous": false,
      "inputs": [
        {
          "indexed": false,
          "internalType": "uint256",
          "name": "playerId",
          "type": "uint256"
        }
      ],
      "name": "Listed",
      "type": "event"
    },
    {
      "anonymous": false,
      "inputs": [
        {
          "indexed": true,
          "internalType": "address",
          "name": "previousOwner",
          "type": "address"
        },
        {
          "indexed": true,
          "internalType": "address",
          "name": "newOwner",
          "type": "address"
        }
      ],
      "name": "OwnershipTransferred",
      "type": "event"
    },
    {
      "anonymous": false,
      "inputs": [
        {
          "indexed": false,
          "internalType": "uint256",
          "name": "playerId",
          "type": "uint256"
        }
      ],
      "name": "PlayerAdded",
      "type": "event"
    },
    {
      "anonymous": false,
      "inputs": [
        {
          "indexed": true,
          "internalType": "address",
          "name": "from",
          "type": "address"
        },
        {
          "indexed": true,
          "internalType": "address",
          "name": "to",
          "type": "address"
        },
        {
          "indexed": true,
          "internalType": "uint256",
          "name": "tokenId",
          "type": "uint256"
        }
      ],
      "name": "Transfer",
      "type": "event"
    },
    {
      "anonymous": false,
      "inputs": [
        {
          "indexed": false,
          "internalType": "uint256",
          "name": "playerId",
          "type": "uint256"
        }
      ],
      "name": "Unlisted",
      "type": "event"
    },
    {
      "inputs": [
        {
          "internalType": "string",
          "name": "formation",
          "type": "string"
        },
        {
          "internalType": "string[]",
          "name": "positions",
          "type": "string[]"
        }
      ],
      "name": "addFormation",
      "outputs": [],
      "stateMutability": "nonpayable",
      "type": "function"
    },
    {
      "inputs": [
        {
          "internalType": "uint256",
          "name": "",
          "type": "uint256"
        }
      ],
      "name": "allPositions",
      "outputs": [
        {
          "internalType": "string",
          "name": "",
          "type": "string"
        }
      ],
      "stateMutability": "view",
      "type": "function"
    },
    {
      "inputs": [
        {
          "internalType": "address",
          "name": "to",
          "type": "address"
        },
        {
          "internalType": "uint256",
          "name": "tokenId",
          "type": "uint256"
        }
      ],
      "name": "approve",
      "outputs": [],
      "stateMutability": "nonpayable",
      "type": "function"
    },
    {
      "inputs": [
        {
          "internalType": "address",
          "name": "owner",
          "type": "address"
        }
      ],
      "name": "balanceOf",
      "outputs": [
        {
          "internalType": "uint256",
          "name": "",
          "type": "uint256"
        }
      ],
      "stateMutability": "view",
      "type": "function"
    },
    {
      "inputs": [],
      "name": "cooldown",
      "outputs": [
        {
          "internalType": "uint256",
          "name": "",
          "type": "uint256"
        }
      ],
      "stateMutability": "view",
      "type": "function"
    },
    {
      "inputs": [],
      "name": "deposit",
      "outputs": [],
      "stateMutability": "payable",
      "type": "function"
    },
    {
      "inputs": [],
      "name": "earnedThroughTraining",
      "outputs": [
        {
          "internalType": "uint256",
          "name": "",
          "type": "uint256"
        }
      ],
      "stateMutability": "view",
      "type": "function"
    },
    {
      "inputs": [],
      "name": "fee",
      "outputs": [
        {
          "internalType": "uint256",
          "name": "",
          "type": "uint256"
        }
      ],
      "stateMutability": "view",
      "type": "function"
    },
    {
      "inputs": [
        {
          "internalType": "string",
          "name": "",
          "type": "string"
        },
        {
          "internalType": "uint256",
          "name": "",
          "type": "uint256"
        }
      ],
      "name": "formationToPositions",
      "outputs": [
        {
          "internalType": "string",
          "name": "",
          "type": "string"
        }
      ],
      "stateMutability": "view",
      "type": "function"
    },
    {
      "inputs": [
        {
          "internalType": "uint256",
          "name": "",
          "type": "uint256"
        }
      ],
      "name": "formations",
      "outputs": [
        {
          "internalType": "string",
          "name": "",
          "type": "string"
        }
      ],
      "stateMutability": "view",
      "type": "function"
    },
    {
      "inputs": [],
      "name": "getAllFormations",
      "outputs": [
        {
          "internalType": "string[]",
          "name": "",
          "type": "string[]"
        }
      ],
      "stateMutability": "view",
      "type": "function"
    },
    {
      "inputs": [],
      "name": "getAllPositions",
      "outputs": [
        {
          "internalType": "string[]",
          "name": "",
          "type": "string[]"
        }
      ],
      "stateMutability": "view",
      "type": "function"
    },
    {
      "inputs": [
        {
          "internalType": "uint256",
          "name": "tokenId",
          "type": "uint256"
        }
      ],
      "name": "getApproved",
      "outputs": [
        {
          "internalType": "address",
          "name": "",
          "type": "address"
        }
      ],
      "stateMutability": "view",
      "type": "function"
    },
    {
      "inputs": [],
      "name": "getBalance",
      "outputs": [
        {
          "internalType": "uint256",
          "name": "",
          "type": "uint256"
        }
      ],
      "stateMutability": "view",
      "type": "function"
    },
    {
      "inputs": [
        {
          "internalType": "address",
          "name": "_owner",
          "type": "address"
        }
      ],
      "name": "getLineup",
      "outputs": [
        {
          "components": [
            {
              "internalType": "uint256[11]",
              "name": "playerIds",
              "type": "uint256[11]"
            },
            {
              "internalType": "string[11]",
              "name": "positions",
              "type": "string[11]"
            },
            {
              "internalType": "string",
              "name": "formation",
              "type": "string"
            },
            {
              "internalType": "bool",
              "name": "isValid",
              "type": "bool"
            }
          ],
          "internalType": "struct Footlink.LineUp",
          "name": "",
          "type": "tuple"
        }
      ],
      "stateMutability": "view",
      "type": "function"
    },
    {
      "inputs": [],
      "name": "getListedPlayers",
      "outputs": [
        {
          "internalType": "uint256[]",
          "name": "",
          "type": "uint256[]"
        }
      ],
      "stateMutability": "view",
      "type": "function"
    },
    {
      "inputs": [],
      "name": "getOpponent",
      "outputs": [
        {
          "internalType": "address",
          "name": "",
          "type": "address"
        }
      ],
      "stateMutability": "nonpayable",
      "type": "function"
    },
    {
      "inputs": [
        {
          "internalType": "uint256",
          "name": "_id",
          "type": "uint256"
        }
      ],
      "name": "getPlayer",
      "outputs": [
        {
          "components": [
            {
              "internalType": "string",
              "name": "name",
              "type": "string"
            },
            {
              "internalType": "string",
              "name": "preferredPosition",
              "type": "string"
            },
            {
              "internalType": "string",
              "name": "imageURI",
              "type": "string"
            },
            {
              "internalType": "string",
              "name": "themeColor",
              "type": "string"
            },
            {
              "internalType": "string",
              "name": "textColor",
              "type": "string"
            },
            {
              "internalType": "string[]",
              "name": "suitablePositions",
              "type": "string[]"
            },
            {
              "internalType": "uint256",
              "name": "id",
              "type": "uint256"
            },
            {
              "internalType": "uint64",
              "name": "dob",
              "type": "uint64"
            },
            {
              "internalType": "uint64",
              "name": "lastUpgrade",
              "type": "uint64"
            },
            {
              "internalType": "uint16",
              "name": "level",
              "type": "uint16"
            }
          ],
          "internalType": "struct Footlink.Player",
          "name": "",
          "type": "tuple"
        }
      ],
      "stateMutability": "view",
      "type": "function"
    },
    {
      "inputs": [
        {
          "internalType": "uint256",
          "name": "_id",
          "type": "uint256"
        }
      ],
      "name": "getPlayerExists",
      "outputs": [
        {
          "internalType": "bool",
          "name": "",
          "type": "bool"
        }
      ],
      "stateMutability": "view",
      "type": "function"
    },
    {
      "inputs": [
        {
          "internalType": "address",
          "name": "_owner",
          "type": "address"
        }
      ],
      "name": "getPlayersByOwner",
      "outputs": [
        {
          "internalType": "uint256[]",
          "name": "",
          "type": "uint256[]"
        }
      ],
      "stateMutability": "view",
      "type": "function"
    },
    {
      "inputs": [
        {
          "internalType": "string",
          "name": "formation",
          "type": "string"
        }
      ],
      "name": "getPositionsFromFormation",
      "outputs": [
        {
          "internalType": "string[]",
          "name": "",
          "type": "string[]"
        }
      ],
      "stateMutability": "view",
      "type": "function"
    },
    {
      "inputs": [],
      "name": "getRandomNumber",
      "outputs": [
        {
          "internalType": "bytes32",
          "name": "requestId",
          "type": "bytes32"
        }
      ],
      "stateMutability": "nonpayable",
      "type": "function"
    },
    {
      "inputs": [
        {
          "internalType": "address",
          "name": "owner",
          "type": "address"
        },
        {
          "internalType": "address",
          "name": "operator",
          "type": "address"
        }
      ],
      "name": "isApprovedForAll",
      "outputs": [
        {
          "internalType": "bool",
          "name": "",
          "type": "bool"
        }
      ],
      "stateMutability": "view",
      "type": "function"
    },
    {
      "inputs": [],
      "name": "levelPercentNoPosition",
      "outputs": [
        {
          "internalType": "uint256",
          "name": "",
          "type": "uint256"
        }
      ],
      "stateMutability": "view",
      "type": "function"
    },
    {
      "inputs": [],
      "name": "levelPercentSuitablePosition",
      "outputs": [
        {
          "internalType": "uint256",
          "name": "",
          "type": "uint256"
        }
      ],
      "stateMutability": "view",
      "type": "function"
    },
    {
      "inputs": [
        {
          "internalType": "address",
          "name": "",
          "type": "address"
        }
      ],
      "name": "lineUps",
      "outputs": [
        {
          "internalType": "string",
          "name": "formation",
          "type": "string"
        },
        {
          "internalType": "bool",
          "name": "isValid",
          "type": "bool"
        }
      ],
      "stateMutability": "view",
      "type": "function"
    },
    {
      "inputs": [],
      "name": "lineupFee",
      "outputs": [
        {
          "internalType": "uint256",
          "name": "",
          "type": "uint256"
        }
      ],
      "stateMutability": "view",
      "type": "function"
    },
    {
      "inputs": [
        {
          "internalType": "uint256",
          "name": "",
          "type": "uint256"
        }
      ],
      "name": "lineupSet",
      "outputs": [
        {
          "internalType": "address",
          "name": "",
          "type": "address"
        }
      ],
      "stateMutability": "view",
      "type": "function"
    },
    {
      "inputs": [
        {
          "internalType": "uint256",
          "name": "_playerId",
          "type": "uint256"
        },
        {
          "internalType": "uint256",
          "name": "_price",
          "type": "uint256"
        }
      ],
      "name": "list",
      "outputs": [],
      "stateMutability": "nonpayable",
      "type": "function"
    },
    {
      "inputs": [
        {
          "internalType": "uint256",
          "name": "",
          "type": "uint256"
        }
      ],
      "name": "listedPlayers",
      "outputs": [
        {
          "internalType": "uint256",
          "name": "",
          "type": "uint256"
        }
      ],
      "stateMutability": "view",
      "type": "function"
    },
    {
      "inputs": [
        {
          "internalType": "uint256",
          "name": "",
          "type": "uint256"
        }
      ],
      "name": "listedPlayersPrices",
      "outputs": [
        {
          "internalType": "uint256",
          "name": "",
          "type": "uint256"
        }
      ],
      "stateMutability": "view",
      "type": "function"
    },
    {
      "inputs": [],
      "name": "matchFee",
      "outputs": [
        {
          "internalType": "uint256",
          "name": "",
          "type": "uint256"
        }
      ],
      "stateMutability": "view",
      "type": "function"
    },
    {
      "inputs": [],
      "name": "maxLevel",
      "outputs": [
        {
          "internalType": "uint256",
          "name": "",
          "type": "uint256"
        }
      ],
      "stateMutability": "view",
      "type": "function"
    },
    {
      "inputs": [
        {
          "components": [
            {
              "internalType": "string",
              "name": "name",
              "type": "string"
            },
            {
              "internalType": "string",
              "name": "preferredPosition",
              "type": "string"
            },
            {
              "internalType": "string",
              "name": "imageURI",
              "type": "string"
            },
            {
              "internalType": "string",
              "name": "themeColor",
              "type": "string"
            },
            {
              "internalType": "string",
              "name": "textColor",
              "type": "string"
            },
            {
              "internalType": "string[]",
              "name": "suitablePositions",
              "type": "string[]"
            },
            {
              "internalType": "uint256",
              "name": "id",
              "type": "uint256"
            },
            {
              "internalType": "uint64",
              "name": "dob",
              "type": "uint64"
            },
            {
              "internalType": "uint64",
              "name": "lastUpgrade",
              "type": "uint64"
            },
            {
              "internalType": "uint16",
              "name": "level",
              "type": "uint16"
            }
          ],
          "internalType": "struct Footlink.Player",
          "name": "_player",
          "type": "tuple"
        }
      ],
      "name": "mint",
      "outputs": [],
      "stateMutability": "nonpayable",
      "type": "function"
    },
    {
      "inputs": [],
      "name": "name",
      "outputs": [
        {
          "internalType": "string",
          "name": "",
          "type": "string"
        }
      ],
      "stateMutability": "view",
      "type": "function"
    },
    {
      "inputs": [],
      "name": "owner",
      "outputs": [
        {
          "internalType": "address",
          "name": "",
          "type": "address"
        }
      ],
      "stateMutability": "view",
      "type": "function"
    },
    {
      "inputs": [
        {
          "internalType": "uint256",
          "name": "tokenId",
          "type": "uint256"
        }
      ],
      "name": "ownerOf",
      "outputs": [
        {
          "internalType": "address",
          "name": "",
          "type": "address"
        }
      ],
      "stateMutability": "view",
      "type": "function"
    },
    {
      "inputs": [
        {
          "internalType": "address",
          "name": "",
          "type": "address"
        }
      ],
      "name": "ownersToDeposits",
      "outputs": [
        {
          "internalType": "uint256",
          "name": "",
          "type": "uint256"
        }
      ],
      "stateMutability": "view",
      "type": "function"
    },
    {
      "inputs": [],
      "name": "play",
      "outputs": [],
      "stateMutability": "payable",
      "type": "function"
    },
    {
      "inputs": [
        {
          "internalType": "uint256",
          "name": "",
          "type": "uint256"
        }
      ],
      "name": "playerToOwner",
      "outputs": [
        {
          "internalType": "address",
          "name": "",
          "type": "address"
        }
      ],
      "stateMutability": "view",
      "type": "function"
    },
    {
      "inputs": [],
      "name": "randomResult",
      "outputs": [
        {
          "internalType": "uint256",
          "name": "",
          "type": "uint256"
        }
      ],
      "stateMutability": "view",
      "type": "function"
    },
    {
      "inputs": [
        {
          "internalType": "bytes32",
          "name": "requestId",
          "type": "bytes32"
        },
        {
          "internalType": "uint256",
          "name": "randomness",
          "type": "uint256"
        }
      ],
      "name": "rawFulfillRandomness",
      "outputs": [],
      "stateMutability": "nonpayable",
      "type": "function"
    },
    {
      "inputs": [],
      "name": "renounceOwnership",
      "outputs": [],
      "stateMutability": "nonpayable",
      "type": "function"
    },
    {
      "inputs": [
        {
          "internalType": "address",
          "name": "from",
          "type": "address"
        },
        {
          "internalType": "address",
          "name": "to",
          "type": "address"
        },
        {
          "internalType": "uint256",
          "name": "tokenId",
          "type": "uint256"
        }
      ],
      "name": "safeTransferFrom",
      "outputs": [],
      "stateMutability": "nonpayable",
      "type": "function"
    },
    {
      "inputs": [
        {
          "internalType": "address",
          "name": "from",
          "type": "address"
        },
        {
          "internalType": "address",
          "name": "to",
          "type": "address"
        },
        {
          "internalType": "uint256",
          "name": "tokenId",
          "type": "uint256"
        },
        {
          "internalType": "bytes",
          "name": "_data",
          "type": "bytes"
        }
      ],
      "name": "safeTransferFrom",
      "outputs": [],
      "stateMutability": "nonpayable",
      "type": "function"
    },
    {
      "inputs": [
        {
          "internalType": "address",
          "name": "operator",
          "type": "address"
        },
        {
          "internalType": "bool",
          "name": "approved",
          "type": "bool"
        }
      ],
      "name": "setApprovalForAll",
      "outputs": [],
      "stateMutability": "nonpayable",
      "type": "function"
    },
    {
      "inputs": [
        {
          "internalType": "uint256",
          "name": "_cooldown",
          "type": "uint256"
        }
      ],
      "name": "setCooldown",
      "outputs": [],
      "stateMutability": "nonpayable",
      "type": "function"
    },
    {
      "inputs": [
        {
          "internalType": "uint256",
          "name": "_fee",
          "type": "uint256"
        }
      ],
      "name": "setFee",
      "outputs": [],
      "stateMutability": "nonpayable",
      "type": "function"
    },
    {
      "inputs": [
        {
          "internalType": "uint256",
          "name": "_percent",
          "type": "uint256"
        }
      ],
      "name": "setLevelPercentNoPosition",
      "outputs": [],
      "stateMutability": "nonpayable",
      "type": "function"
    },
    {
      "inputs": [
        {
          "internalType": "uint256",
          "name": "_percent",
          "type": "uint256"
        }
      ],
      "name": "setLevelPercentSuitablePosition",
      "outputs": [],
      "stateMutability": "nonpayable",
      "type": "function"
    },
    {
      "inputs": [
        {
          "internalType": "uint256[11]",
          "name": "_playerIds",
          "type": "uint256[11]"
        },
        {
          "internalType": "string[11]",
          "name": "_positions",
          "type": "string[11]"
        },
        {
          "internalType": "string",
          "name": "_formation",
          "type": "string"
        }
      ],
      "name": "setLineUp",
      "outputs": [
        {
          "internalType": "uint256",
          "name": "",
          "type": "uint256"
        }
      ],
      "stateMutability": "payable",
      "type": "function"
    },
    {
      "inputs": [
        {
          "internalType": "uint256",
          "name": "_fee",
          "type": "uint256"
        }
      ],
      "name": "setLineupFee",
      "outputs": [],
      "stateMutability": "nonpayable",
      "type": "function"
    },
    {
      "inputs": [
        {
          "internalType": "uint256",
          "name": "_fee",
          "type": "uint256"
        }
      ],
      "name": "setMatchFee",
      "outputs": [],
      "stateMutability": "nonpayable",
      "type": "function"
    },
    {
      "inputs": [
        {
          "internalType": "uint256",
          "name": "_level",
          "type": "uint256"
        }
      ],
      "name": "setMaxLevel",
      "outputs": [],
      "stateMutability": "nonpayable",
      "type": "function"
    },
    {
      "inputs": [
        {
          "internalType": "bytes4",
          "name": "interfaceId",
          "type": "bytes4"
        }
      ],
      "name": "supportsInterface",
      "outputs": [
        {
          "internalType": "bool",
          "name": "",
          "type": "bool"
        }
      ],
      "stateMutability": "view",
      "type": "function"
    },
    {
      "inputs": [],
      "name": "symbol",
      "outputs": [
        {
          "internalType": "string",
          "name": "",
          "type": "string"
        }
      ],
      "stateMutability": "view",
      "type": "function"
    },
    {
      "inputs": [
        {
          "internalType": "uint256",
          "name": "index",
          "type": "uint256"
        }
      ],
      "name": "tokenByIndex",
      "outputs": [
        {
          "internalType": "uint256",
          "name": "",
          "type": "uint256"
        }
      ],
      "stateMutability": "view",
      "type": "function"
    },
    {
      "inputs": [
        {
          "internalType": "address",
          "name": "owner",
          "type": "address"
        },
        {
          "internalType": "uint256",
          "name": "index",
          "type": "uint256"
        }
      ],
      "name": "tokenOfOwnerByIndex",
      "outputs": [
        {
          "internalType": "uint256",
          "name": "",
          "type": "uint256"
        }
      ],
      "stateMutability": "view",
      "type": "function"
    },
    {
      "inputs": [
        {
          "internalType": "uint256",
          "name": "tokenId",
          "type": "uint256"
        }
      ],
      "name": "tokenURI",
      "outputs": [
        {
          "internalType": "string",
          "name": "",
          "type": "string"
        }
      ],
      "stateMutability": "view",
      "type": "function"
    },
    {
      "inputs": [],
      "name": "totalSupply",
      "outputs": [
        {
          "internalType": "uint256",
          "name": "",
          "type": "uint256"
        }
      ],
      "stateMutability": "view",
      "type": "function"
    },
    {
      "inputs": [
        {
          "internalType": "uint256",
          "name": "_playerId",
          "type": "uint256"
        }
      ],
      "name": "train",
      "outputs": [],
      "stateMutability": "payable",
      "type": "function"
    },
    {
      "inputs": [
        {
          "internalType": "address",
          "name": "from",
          "type": "address"
        },
        {
          "internalType": "address",
          "name": "to",
          "type": "address"
        },
        {
          "internalType": "uint256",
          "name": "tokenId",
          "type": "uint256"
        }
      ],
      "name": "transferFrom",
      "outputs": [],
      "stateMutability": "nonpayable",
      "type": "function"
    },
    {
      "inputs": [
        {
          "internalType": "address",
          "name": "newOwner",
          "type": "address"
        }
      ],
      "name": "transferOwnership",
      "outputs": [],
      "stateMutability": "nonpayable",
      "type": "function"
    },
    {
      "inputs": [
        {
          "internalType": "uint256",
          "name": "_playerId",
          "type": "uint256"
        }
      ],
      "name": "transferPlayer",
      "outputs": [],
      "stateMutability": "payable",
      "type": "function"
    },
    {
      "inputs": [
        {
          "internalType": "uint256",
          "name": "_playerId",
          "type": "uint256"
        }
      ],
      "name": "unlist",
      "outputs": [],
      "stateMutability": "nonpayable",
      "type": "function"
    },
    {
      "inputs": [
        {
          "internalType": "uint256",
          "name": "_price",
          "type": "uint256"
        }
      ],
      "name": "withdraw",
      "outputs": [],
      "stateMutability": "nonpayable",
      "type": "function"
    },
    {
      "inputs": [
        {
          "internalType": "uint256",
          "name": "_price",
          "type": "uint256"
        }
      ],
      "name": "withdrawDeposit",
      "outputs": [],
      "stateMutability": "payable",
      "type": "function"
    }
  ],
  "bytecode": "0x60c060405261a8c06015556729a2241af62c000060165560006017556064601855604b601d556032601e556702c68af0bb1400006022556729a2241af62c00006023553480156200004f57600080fd5b506040805180820182526008815267466f6f746c696e6b60c01b60208083019182528351808501909452600484526321a62aa160e11b908401528151738c7382f9d8f56b33781fe506e897a4f1e2d172559373326c977e6efc84e512bb9c30f76e30c160ed06fb93929091620000c8916000916200070c565b508051620000de9060019060208401906200070c565b505050620000fb620000f5620006b660201b60201c565b620006ba565b6001600160a01b0391821660a052166080527f6e75b569a01ef56d18cab6a8e71e6600d6ce853834d4a5748b720d06f878b3a4601a5567016345785d8a0000601b5560208054600181018255600082905260408051808201909152600580825264342d332d3360d81b919093019081526200018a9260008051602062006178833981519152909201916200070c565b5060405180610160016040528060405180604001604052806002815260200161474b60f01b815250815260200160405180604001604052806002815260200161262160f11b81525081526020016040518060400160405280600281526020016121a160f11b81525081526020016040518060400160405280600281526020016121a160f11b815250815260200160405180604001604052806002815260200161292160f11b81525081526020016040518060400160405280600381526020016221a6a360e91b81525081526020016040518060400160405280600381526020016221a6a360e91b81525081526020016040518060400160405280600381526020016221a6a360e91b815250815260200160405180604001604052806003815260200162262ba360e91b81525081526020016040518060400160405280600281526020016114d560f21b815250815260200160405180604001604052806003815260200162292ba360e91b815250815250601f604051620003159064342d332d3360d81b815260050190565b9081526040519081900360200190206200033191600b6200079b565b5060208054600181018255600082905260408051808201909152600c8082526b342d332d332061747461636b60a01b91909301908152620003869260008051602062006178833981519152909201916200070c565b5060405180610160016040528060405180604001604052806002815260200161474b60f01b815250815260200160405180604001604052806002815260200161262160f11b81525081526020016040518060400160405280600281526020016121a160f11b81525081526020016040518060400160405280600281526020016121a160f11b815250815260200160405180604001604052806002815260200161292160f11b81525081526020016040518060400160405280600381526020016221a6a360e91b81525081526020016040518060400160405280600381526020016220a6a360e91b81525081526020016040518060400160405280600381526020016221a6a360e91b815250815260200160405180604001604052806003815260200162292ba360e91b81525081526020016040518060400160405280600281526020016114d560f21b815250815260200160405180604001604052806003815260200162262ba360e91b815250815250601f60405162000518906b342d332d332061747461636b60a01b8152600c0190565b9081526040519081900360200190206200053491600b6200079b565b50604080516101e08101825260036101a0820181815262262ba360e91b6101c084015282528251808401845260028082526114d560f21b602083810191909152808501929092528451808601865283815262292ba360e91b8184015284860152845180860186528181526121a360f11b818401526060850152845180860186528381526220a6a360e91b818401526080850152845180860186528381526221a6a360e91b8184015260a085015284518086018652838152622226a360e91b8184015260c085015284518086018652838152622626a360e91b8184015260e085015284518086018652928352622926a360e91b838301526101008401929092528351808501855282815261292160f11b818301526101208401528351808501855282815261262160f11b81830152610140840152835180850185528281526121a160f11b81830152610160840152835180850190945290835261474b60f01b90830152610180810191909152620006af90602190600d620007fb565b5062000904565b3390565b600a80546001600160a01b038381166001600160a01b0319831681179093556040519116919082907f8be0079c531659141344cd1fd0a4f28419497f9722a3daafe3b4186f6b6457e090600090a35050565b8280546200071a90620008c7565b90600052602060002090601f0160209004810192826200073e576000855562000789565b82601f106200075957805160ff191683800117855562000789565b8280016001018555821562000789579182015b82811115620007895782518255916020019190600101906200076c565b50620007979291506200084d565b5090565b828054828255906000526020600020908101928215620007ed579160200282015b82811115620007ed5782518051620007dc9184916020909101906200070c565b5091602001919060010190620007bc565b506200079792915062000864565b828054828255906000526020600020908101928215620007ed579160200282015b82811115620007ed57825180516200083c9184916020909101906200070c565b50916020019190600101906200081c565b5b808211156200079757600081556001016200084e565b80821115620007975760006200087b828262000885565b5060010162000864565b5080546200089390620008c7565b6000825580601f10620008a4575050565b601f016020900490600052602060002090810190620008c491906200084d565b50565b600181811c90821680620008dc57607f821691505b60208210811415620008fe57634e487b7160e01b600052602260045260246000fd5b50919050565b60805160a05161584062000938600039600081816122f90152614076015260008181612bc5015261404701526158406000f3fe6080604052600436106103e45760003560e01c8063715018a611610208578063c87b56dd11610118578063e1a51a62116100ab578063e87139651161007a578063e871396514610b41578063e985e9c514610b61578063eef2fc1f14610baa578063f2fde38b14610bca578063fd32f91814610bea57600080fd5b8063e1a51a6214610ab1578063e55ae4e814610ac7578063e5f7322f14610af4578063e6b27a8414610b2157600080fd5b8063d444bfc7116100e7578063d444bfc714610a50578063d6c0ecc814610a66578063dbdff2c114610a86578063ddca3f4314610a9b57600080fd5b8063c87b56dd146109f2578063cc06c35914610a12578063cdbac3b514610a28578063d0e30db014610a4857600080fd5b806395d89b411161019b578063b88d4fde1161016a578063b88d4fde14610952578063bac0764e14610972578063bd820bd614610992578063bf5a4dd3146109b2578063c7c9cbe1146109d257600080fd5b806395d89b41146108dd578063975b1cd2146108f25780639d16762214610912578063a22cb4651461093257600080fd5b80638f07423b116101d75780638f07423b1461087f578063923e5c6a1461089557806393e84cd9146108b557806394985ddd146108bd57600080fd5b8063715018a614610820578063787a08a614610835578063862da8781461084b5780638da5cb5b1461086157600080fd5b8063368004ed1161030357806350fd7367116102965780636352211e116102655780636352211e1461078057806364332285146107a057806367d80c52146107cd57806369fe0e2d146107e057806370a082311461080057600080fd5b806350fd7367146106db5780635337c2de146106fb57806354359fd414610728578063580adaa31461074857600080fd5b806342842e0e116102d257806342842e0e146106665780634bdf51f7146106865780634f6ccce71461069b5780634fc3f41a146106bb57600080fd5b8063368004ed14610608578063395800541461061b5780633eec23f71461063057806342619f661461065057600080fd5b806318f56a0a1161037b5780632f4c3a841161034a5780632f4c3a84146105a25780632f745c59146105b557806333289a46146105d5578063344f1ba5146105e857600080fd5b806318f56a0a1461050a57806319b90d271461052c57806323b872dd146105625780632e1a7d4d1461058257600080fd5b8063095ea7b3116103b7578063095ea7b31461049a5780630a4d78e3146104bc57806312065fe0146104e057806318160ddd146104f557600080fd5b806301ffc9a7146103e957806305901e891461041e57806306fdde0314610440578063081812fc14610462575b600080fd5b3480156103f557600080fd5b506104096104043660046149aa565b610c18565b60405190151581526020015b60405180910390f35b34801561042a57600080fd5b50610433610c29565b60405161041591906149c7565b34801561044c57600080fd5b50610455610c81565b6040516104159190614a63565b34801561046e57600080fd5b5061048261047d366004614a76565b610d0a565b6040516001600160a01b039091168152602001610415565b3480156104a657600080fd5b506104ba6104b5366004614aab565b610da4565b005b3480156104c857600080fd5b506104d260225481565b604051908152602001610415565b3480156104ec57600080fd5b506104d2610eba565b34801561050157600080fd5b506008546104d2565b34801561051657600080fd5b5061051f610eec565b6040516104159190614ad5565b34801561053857600080fd5b50610482610547366004614a76565b600e602052600090815260409020546001600160a01b031681565b34801561056e57600080fd5b506104ba61057d366004614b37565b610fc5565b34801561058e57600080fd5b506104ba61059d366004614a76565b610ff6565b6104ba6105b0366004614a76565b611127565b3480156105c157600080fd5b506104d26105d0366004614aab565b611290565b6104ba6105e3366004614a76565b611326565b3480156105f457600080fd5b506104ba610603366004614a76565b61147a565b6104ba610616366004614a76565b6114a9565b34801561062757600080fd5b50610482611731565b34801561063c57600080fd5b5061045561064b366004614c7c565b611898565b34801561065c57600080fd5b506104d2601c5481565b34801561067257600080fd5b506104ba610681366004614b37565b611960565b34801561069257600080fd5b5061051f61197b565b3480156106a757600080fd5b506104d26106b6366004614a76565b611a4b565b3480156106c757600080fd5b506104ba6106d6366004614a76565b611ade565b3480156106e757600080fd5b506104ba6106f6366004614cc0565b611b0d565b34801561070757600080fd5b506104d2610716366004614ce2565b60256020526000908152604090205481565b34801561073457600080fd5b506104ba610743366004614a76565b611d1e565b34801561075457600080fd5b50610409610763366004614a76565b6000908152600e60205260409020546001600160a01b0316151590565b34801561078c57600080fd5b5061048261079b366004614a76565b611d4d565b3480156107ac57600080fd5b506104d26107bb366004614a76565b60106020526000908152604090205481565b6104d26107db366004614d70565b611d58565b3480156107ec57600080fd5b506104ba6107fb366004614a76565b611ecf565b34801561080c57600080fd5b506104d261081b366004614ce2565b611efe565b34801561082c57600080fd5b506104ba611f85565b34801561084157600080fd5b506104d260155481565b34801561085757600080fd5b506104d260235481565b34801561086d57600080fd5b50600a546001600160a01b0316610482565b34801561088b57600080fd5b506104d2601d5481565b3480156108a157600080fd5b506104d26108b0366004614a76565b611fbb565b6104ba611fdc565b3480156108c957600080fd5b506104ba6108d8366004614cc0565b6122ee565b3480156108e957600080fd5b50610455612370565b3480156108fe57600080fd5b5061048261090d366004614a76565b61237f565b34801561091e57600080fd5b506104ba61092d366004614ee7565b6123a9565b34801561093e57600080fd5b506104ba61094d36600461505b565b612627565b34801561095e57600080fd5b506104ba61096d366004615092565b612632565b34801561097e57600080fd5b5061045561098d366004614a76565b612664565b34801561099e57600080fd5b5061051f6109ad36600461510d565b61268f565b3480156109be57600080fd5b506104ba6109cd366004614a76565b612786565b3480156109de57600080fd5b506104ba6109ed366004615141565b6128b0565b3480156109fe57600080fd5b50610455610a0d366004614a76565b61294f565b348015610a1e57600080fd5b506104d260185481565b348015610a3457600080fd5b506104ba610a43366004614a76565b612a37565b6104ba612a66565b348015610a5c57600080fd5b506104d2601e5481565b348015610a7257600080fd5b506104ba610a81366004614a76565b612b72565b348015610a9257600080fd5b506104d2612ba1565b348015610aa757600080fd5b506104d260165481565b348015610abd57600080fd5b506104d260175481565b348015610ad357600080fd5b50610ae7610ae2366004614a76565b612ca5565b60405161041591906151f9565b348015610b0057600080fd5b50610b14610b0f366004614ce2565b613120565b6040516104159190615304565b348015610b2d57600080fd5b506104ba610b3c366004614a76565b6132ea565b348015610b4d57600080fd5b50610455610b5c366004614a76565b613319565b348015610b6d57600080fd5b50610409610b7c3660046153c6565b6001600160a01b03918216600090815260056020908152604080832093909416825291909152205460ff1690565b348015610bb657600080fd5b50610433610bc5366004614ce2565b613329565b348015610bd657600080fd5b506104ba610be5366004614ce2565b613483565b348015610bf657600080fd5b50610c0a610c05366004614ce2565b61351b565b6040516104159291906153f9565b6000610c23826135c4565b92915050565b60606013805480602002602001604051908101604052809291908181526020018280548015610c7757602002820191906000526020600020905b815481526020019060010190808311610c63575b5050505050905090565b606060008054610c909061541d565b80601f0160208091040260200160405190810160405280929190818152602001828054610cbc9061541d565b8015610c775780601f10610cde57610100808354040283529160200191610c77565b820191906000526020600020905b815481529060010190602001808311610cec57509395945050505050565b6000818152600260205260408120546001600160a01b0316610d885760405162461bcd60e51b815260206004820152602c60248201527f4552433732313a20617070726f76656420717565727920666f72206e6f6e657860448201526b34b9ba32b73a103a37b5b2b760a11b60648201526084015b60405180910390fd5b506000908152600460205260409020546001600160a01b031690565b6000610daf826135e9565b9050806001600160a01b0316836001600160a01b03161415610e1d5760405162461bcd60e51b815260206004820152602160248201527f4552433732313a20617070726f76616c20746f2063757272656e74206f776e656044820152603960f91b6064820152608401610d7f565b336001600160a01b0382161480610e395750610e398133610b7c565b610eab5760405162461bcd60e51b815260206004820152603860248201527f4552433732313a20617070726f76652063616c6c6572206973206e6f74206f7760448201527f6e6572206e6f7220617070726f76656420666f7220616c6c00000000000000006064820152608401610d7f565b610eb58383613660565b505050565b600a546000906001600160a01b03163314610ee75760405162461bcd60e51b8152600401610d7f90615452565b504790565b60606021805480602002602001604051908101604052809291908181526020016000905b82821015610fbc578382906000526020600020018054610f2f9061541d565b80601f0160208091040260200160405190810160405280929190818152602001828054610f5b9061541d565b8015610fa85780601f10610f7d57610100808354040283529160200191610fa8565b820191906000526020600020905b815481529060010190602001808311610f8b57829003601f168201915b505050505081526020019060010190610f10565b50505050905090565b610fcf33826136ce565b610feb5760405162461bcd60e51b8152600401610d7f90615487565b610eb58383836137c5565b600a546001600160a01b031633146110205760405162461bcd60e51b8152600401610d7f90615452565b8047101561107b5760405162461bcd60e51b815260206004820152602260248201527f5468652070726963652069732067726561746572207468616e2062616c616e63604482015261652160f01b6064820152608401610d7f565b6040513390600090829084908381818185875af1925050503d80600081146110bf576040519150601f19603f3d011682016040523d82523d6000602084013e6110c4565b606091505b5050905080610eb55760405162461bcd60e51b815260206004820152602960248201527f5472616e73616374696f6e206661696c65642c20636f756c64206e6f742073656044820152686e642066756e64732160b81b6064820152608401610d7f565b6000818152600f602052604090205481906111545760405162461bcd60e51b8152600401610d7f906154d8565b600082815260106020526040902054341461116e57600080fd5b600061117983611d4d565b90506000816001600160a01b03163460405160006040518083038185875af1925050503d80600081146111c8576040519150601f19603f3d011682016040523d82523d6000602084013e6111cd565b606091505b505090508061120f5760405162461bcd60e51b815260206004820152600e60248201526d11985a5b1959081d1bc81cd95b9960921b6044820152606401610d7f565b61121a8233866137c5565b6001600160a01b038216600090815260126020526040812080549161123e83615536565b90915550506000848152600e6020908152604080832080546001600160a01b0319163390811790915583526012909152812080549161127c8361554d565b919050555061128a84612786565b50505050565b600061129b83611efe565b82106112fd5760405162461bcd60e51b815260206004820152602b60248201527f455243373231456e756d657261626c653a206f776e657220696e646578206f7560448201526a74206f6620626f756e647360a81b6064820152608401610d7f565b506001600160a01b03919091166000908152600660209081526040808320938352929052205490565b336000908152602560205260409020548111156113855760405162461bcd60e51b815260206004820152601b60248201527f456e6f7567682066756e6473206e6f74206465706f73697465642100000000006044820152606401610d7f565b6040513390600090829084908381818185875af1925050503d80600081146113c9576040519150601f19603f3d011682016040523d82523d6000602084013e6113ce565b606091505b5050336000908152602560205260408120805492935085929091906113f4908490615568565b909155508190506114525760405162461bcd60e51b815260206004820152602260248201527f436f756c64206e6f7420636f6d706c65746520746865207472616e736163746960448201526137b760f11b6064820152608401610d7f565b33600090815260256020526040902054670de0b6b3a76400001115610eb557610eb53361396c565b600a546001600160a01b031633146114a45760405162461bcd60e51b8152600401610d7f90615452565b601855565b6015546000828152600d602052604090206007015482919042906114de908390600160401b90046001600160401b031661557f565b111561152c5760405162461bcd60e51b815260206004820152601c60248201527f436f6f6c646f776e20706572696f64206973206e6f74206f76657221000000006044820152606401610d7f565b6018546000848152600d60205260409020600701548490600160801b900461ffff16821161159c5760405162461bcd60e51b815260206004820152601d60248201527f506c61796572206861732072656163686564206d6178206c6576656c210000006044820152606401610d7f565b6000858152600e602052604090205485906001600160a01b03166115d25760405162461bcd60e51b8152600401610d7f90615597565b6115db81611d4d565b6001600160a01b0316336001600160a01b03161461160b5760405162461bcd60e51b8152600401610d7f906155c6565b60165434101561165d5760405162461bcd60e51b815260206004820152601960248201527f526571756972656420666565206973206e6f742073656e7421000000000000006044820152606401610d7f565b6000868152600d602052604090206007018054600160801b900461ffff16906010611687836155ee565b82546101009290920a61ffff818102199093169190921691909102179055506000868152600d6020526040812060070180546fffffffffffffffff00000000000000001916600160401b426001600160401b031602179055601780543492906116f190849061557f565b90915550506040518681527f6a1b6f91db361bdf7356d3942ed64f2ee2fea430979dbba7ea23f44e8b2110079060200160405180910390a1505050505050565b3360008181526011602052604081206017015490919060ff166117665760405162461bcd60e51b8152600401610d7f90615610565b6024546001106117b15760405162461bcd60e51b8152602060048201526016602482015275506c6179657273206e6f7420617661696c61626c652160501b6044820152606401610d7f565b6117b9612ba1565b50602454601c546117ca919061564d565b6117d590600161557f565b601c8190556000906024906117ec90600190615568565b815481106117fc576117fc615661565b6000918252602090912001546001600160a01b031690503381141561189157602454601c5414156118645760246002601c546118389190615568565b8154811061184857611848615661565b6000918252602090912001546001600160a01b03169050611891565b6024601c548154811061187957611879615661565b6000918252602090912001546001600160a01b031690505b91505b5090565b8151602081840181018051601f8252928201918501919091209190528054829081106118c357600080fd5b906000526020600020016000915091505080546118df9061541d565b80601f016020809104026020016040519081016040528092919081815260200182805461190b9061541d565b80156119585780601f1061192d57610100808354040283529160200191611958565b820191906000526020600020905b81548152906001019060200180831161193b57829003601f168201915b505050505081565b610eb583838360405180602001604052806000815250612632565b60606020805480602002602001604051908101604052809291908181526020016000905b82821015610fbc5783829060005260206000200180546119be9061541d565b80601f01602080910402602001604051908101604052809291908181526020018280546119ea9061541d565b8015611a375780601f10611a0c57610100808354040283529160200191611a37565b820191906000526020600020905b815481529060010190602001808311611a1a57829003601f168201915b50505050508152602001906001019061199f565b6000611a5660085490565b8210611ab95760405162461bcd60e51b815260206004820152602c60248201527f455243373231456e756d657261626c653a20676c6f62616c20696e646578206f60448201526b7574206f6620626f756e647360a01b6064820152608401610d7f565b60088281548110611acc57611acc615661565b90600052602060002001549050919050565b600a546001600160a01b03163314611b085760405162461bcd60e51b8152600401610d7f90615452565b601555565b6000828152600e602052604090205482906001600160a01b0316611b435760405162461bcd60e51b8152600401610d7f90615597565b611b4c81611d4d565b6001600160a01b0316336001600160a01b031614611b7c5760405162461bcd60e51b8152600401610d7f906155c6565b6000838152600f6020526040902054839015611bef5760405162461bcd60e51b815260206004820152602c60248201527f5468697320706c6179657220697320616c7265616479206c6973746564206f6e60448201526b20746865206d61726b65742160a01b6064820152608401610d7f565b60005b600b811015611c905733600090815260116020526040812082600b8110611c1b57611c1b615661565b0154905085811415611c7d5760405162461bcd60e51b815260206004820152602560248201527f506c6179657220697320696e20746865206c696e6575702c2063616e6e6f74206044820152646c6973742160d81b6064820152608401610d7f565b5080611c888161554d565b915050611bf2565b50601380546001810182557f66de8ffda797e3de9c05e8fc57b3bf0ec28a930d40b0d285d93c06501cf6a0900185905560008581526010602090815260408083208790559254600f9091529082902055517ff3ecdc9ffda52c5ad69793c567cb456f83bba2d14f196542e0be80c919a8bda390611d109086815260200190565b60405180910390a150505050565b600a546001600160a01b03163314611d485760405162461bcd60e51b8152600401610d7f90615452565b602355565b6000610c23826135e9565b60008360005b600b811015611de45733611d878383600b8110611d7d57611d7d615661565b6020020151611d4d565b6001600160a01b031614611dd25760405162461bcd60e51b8152602060048201526012602482015271506c6179657273206e6f74206f776e65642160701b6044820152606401610d7f565b80611ddc8161554d565b915050611d5e565b506022543414611e2f5760405162461bcd60e51b8152602060048201526016602482015275526571756972656420666565206e6f742073656e742160501b6044820152606401610d7f565b604080516080810182528681526020808201879052818301869052600160608301523360009081526011909152919091208151611e6f908290600b614712565b506020820151611e8590600b808401919061474c565b5060408201518051611ea1916016840191602090910190614798565b50606091909101516017909101805460ff1916911515919091179055611ec633613a4f565b95945050505050565b600a546001600160a01b03163314611ef95760405162461bcd60e51b8152600401610d7f90615452565b601655565b60006001600160a01b038216611f695760405162461bcd60e51b815260206004820152602a60248201527f4552433732313a2062616c616e636520717565727920666f7220746865207a65604482015269726f206164647265737360b01b6064820152608401610d7f565b506001600160a01b031660009081526003602052604090205490565b600a546001600160a01b03163314611faf5760405162461bcd60e51b8152600401610d7f90615452565b611fb96000613ca4565b565b60138181548110611fcb57600080fd5b600091825260209091200154905081565b3360008181526011602052604090206017015460ff1661200e5760405162461bcd60e51b8152600401610d7f90615610565b33600090815260256020526040902054670de0b6b3a764000011156120855760405162461bcd60e51b815260206004820152602760248201527f446f6573206e6f74206861766520656e6f7567682066756e647320696e206465604482015266706f736974732160c81b6064820152608401610d7f565b600061208f611731565b9050600061209c33613a4f565b905060006120a983613a4f565b90506032818311156120dc576120bf8284615568565b6120ca906003615677565b6120d590603261557f565b90506120ff565b6120e68383615568565b6120f1906003615677565b6120fc906032615568565b90505b612107612ba1565b506064601c54612117919061564d565b61212290600161557f565b601c819055811061221157336000908152600c602052604081208054916121488361554d565b90915550506001600160a01b0384166000908152600c602052604081206001018054916121748361554d565b90915550506001600160a01b03841660009081526025602052604081208054670de0b6b3a764000092906121a9908490615568565b90915550506001600160a01b038416600090815260256020526040902054670de0b6b3a764000011156121df576121df8461396c565b33600090815260256020526040812080546706f05b59d3b20000929061220690849061557f565b909155506122e79050565b336000908152600c6020526040812060010180549161222f8361554d565b90915550506001600160a01b0384166000908152600c602052604081208054916122588361554d565b90915550503360009081526025602052604081208054670de0b6b3a76400009290612284908490615568565b909155505033600090815260256020526040902054670de0b6b3a764000011156122b1576122b13361396c565b6001600160a01b038416600090815260256020526040812080546706f05b59d3b2000092906122e190849061557f565b90915550505b5050505050565b336001600160a01b037f000000000000000000000000000000000000000000000000000000000000000016146123665760405162461bcd60e51b815260206004820152601f60248201527f4f6e6c7920565246436f6f7264696e61746f722063616e2066756c66696c6c006044820152606401610d7f565b601c5550565b5050565b606060018054610c909061541d565b6024818154811061238f57600080fd5b6000918252602090912001546001600160a01b0316905081565b600a546001600160a01b031633146123d35760405162461bcd60e51b8152600401610d7f90615452565b60c08101516000908152600e60205260409020546001600160a01b03161561242e5760405162461bcd60e51b815260206004820152600e60248201526d506c61796572204578697374732160901b6044820152606401610d7f565b61243c600b80546001019055565b600b5460c082018190526000908152600d6020908152604090912082518051849361246b928492910190614798565b5060208281015180516124849260018501920190614798565b50604082015180516124a0916002840191602090910190614798565b50606082015180516124bc916003840191602090910190614798565b50608082015180516124d8916004840191602090910190614798565b5060a082015180516124f491600584019160209091019061480b565b5060c082810151600683015560e0830151600790920180546101008501516101209095015161ffff16600160801b0261ffff60801b196001600160401b03968716600160401b026fffffffffffffffffffffffffffffffff1990931696909516959095171792909216929092179055810180516014805460018101825560009182527fce6d7b5282bd9a3661ae061feed1dbda4e52ab073b1f9285be6e155d9c38d4ec019190915590518152600e6020908152604080832080546001600160a01b031916339081179091558352601290915281208054916125d48361554d565b91905055506125e7338260c00151613cf6565b7f5af403e238a3f8f7d43c05ff2fac53c833e031e8fb8ec011b3c8e073d870ad7b8160c0015160405161261c91815260200190565b60405180910390a150565b61236c338383613e44565b61263c33836136ce565b6126585760405162461bcd60e51b8152600401610d7f90615487565b61128a84848484613f13565b6021818154811061267457600080fd5b9060005260206000200160009150905080546118df9061541d565b6060601f826040516126a19190615696565b9081526020016040518091039020805480602002602001604051908101604052809291908181526020016000905b8282101561277b5783829060005260206000200180546126ee9061541d565b80601f016020809104026020016040519081016040528092919081815260200182805461271a9061541d565b80156127675780601f1061273c57610100808354040283529160200191612767565b820191906000526020600020905b81548152906001019060200180831161274a57829003601f168201915b5050505050815260200190600101906126cf565b505050509050919050565b6000818152600e602052604090205481906001600160a01b03166127bc5760405162461bcd60e51b8152600401610d7f90615597565b6127c581611d4d565b6001600160a01b0316336001600160a01b0316146127f55760405162461bcd60e51b8152600401610d7f906155c6565b6000828152600f602052604090205482906128225760405162461bcd60e51b8152600401610d7f906154d8565b6000838152600f602052604090205460139061284090600190615568565b8154811061285057612850615661565b6000918252602080832091909101829055848252600f81526040808320839055601082528083209290925590518481527f6318005f6dc5a71d3e4ad5b4d1fe455ef3402d62b64573777af55bb6bfe3daab910160405180910390a1505050565b600a546001600160a01b031633146128da5760405162461bcd60e51b8152600401610d7f90615452565b80601f836040516128eb9190615696565b9081526020016040518091039020908051906020019061290c92919061480b565b506020805460018101825560008290528351610eb5927fc97bfaf2f8ee708c303a06d134f5ecd8389ae0432af62dc132a24118292866bb90920191850190614798565b6000818152600260205260409020546060906001600160a01b03166129ce5760405162461bcd60e51b815260206004820152602f60248201527f4552433732314d657461646174613a2055524920717565727920666f72206e6f60448201526e3732bc34b9ba32b73a103a37b5b2b760891b6064820152608401610d7f565b60006129e560408051602081019091526000815290565b90506000815111612a055760405180602001604052806000815250612a30565b80612a0f84613f46565b604051602001612a209291906156b2565b6040516020818303038152906040525b9392505050565b600a546001600160a01b03163314612a615760405162461bcd60e51b8152600401610d7f90615452565b602255565b3360008181526011602052604090206017015460ff16612a985760405162461bcd60e51b8152600401610d7f90615610565b670de0b6b3a7640000341015612ae95760405162461bcd60e51b81526020600482015260166024820152754e6f7420656e6f7567682066756e64732073656e742160501b6044820152606401610d7f565b3360009081526025602052604081208054349290612b0890849061557f565b909155505033600090815260256020526040902054671bc16d674ec800001115612b6f57602480546001810182556000919091527f7cd332d19b93bcabe3cce7ca0c18a052f57e5fd03b4758a09f30f5ddc4b22ec40180546001600160a01b031916331790555b50565b600a546001600160a01b03163314612b9c5760405162461bcd60e51b8152600401610d7f90615452565b601e55565b601b546040516370a0823160e01b8152306004820152600091906001600160a01b037f000000000000000000000000000000000000000000000000000000000000000016906370a0823190602401602060405180830381865afa158015612c0c573d6000803e3d6000fd5b505050506040513d601f19601f82011682018060405250810190612c3091906156e1565b1015612c925760405162461bcd60e51b815260206004820152602b60248201527f4e6f7420656e6f756768204c494e4b202d2066696c6c20636f6e74726163742060448201526a1dda5d1a0819985d58d95d60aa1b6064820152608401610d7f565b612ca0601a54601b54614043565b905090565b612d116040518061014001604052806060815260200160608152602001606081526020016060815260200160608152602001606081526020016000815260200160006001600160401b0316815260200160006001600160401b03168152602001600061ffff1681525090565b6000828152600d60205260409081902081516101408101909252805482908290612d3a9061541d565b80601f0160208091040260200160405190810160405280929190818152602001828054612d669061541d565b8015612db35780601f10612d8857610100808354040283529160200191612db3565b820191906000526020600020905b815481529060010190602001808311612d9657829003601f168201915b50505050508152602001600182018054612dcc9061541d565b80601f0160208091040260200160405190810160405280929190818152602001828054612df89061541d565b8015612e455780601f10612e1a57610100808354040283529160200191612e45565b820191906000526020600020905b815481529060010190602001808311612e2857829003601f168201915b50505050508152602001600282018054612e5e9061541d565b80601f0160208091040260200160405190810160405280929190818152602001828054612e8a9061541d565b8015612ed75780601f10612eac57610100808354040283529160200191612ed7565b820191906000526020600020905b815481529060010190602001808311612eba57829003601f168201915b50505050508152602001600382018054612ef09061541d565b80601f0160208091040260200160405190810160405280929190818152602001828054612f1c9061541d565b8015612f695780601f10612f3e57610100808354040283529160200191612f69565b820191906000526020600020905b815481529060010190602001808311612f4c57829003601f168201915b50505050508152602001600482018054612f829061541d565b80601f0160208091040260200160405190810160405280929190818152602001828054612fae9061541d565b8015612ffb5780601f10612fd057610100808354040283529160200191612ffb565b820191906000526020600020905b815481529060010190602001808311612fde57829003601f168201915b5050505050815260200160058201805480602002602001604051908101604052809291908181526020016000905b828210156130d55783829060005260206000200180546130489061541d565b80601f01602080910402602001604051908101604052809291908181526020018280546130749061541d565b80156130c15780601f10613096576101008083540402835291602001916130c1565b820191906000526020600020905b8154815290600101906020018083116130a457829003601f168201915b505050505081526020019060010190613029565b50505090825250600682015460208201526007909101546001600160401b038082166040840152600160401b8204166060830152600160801b900461ffff1660809091015292915050565b613128614858565b6001600160a01b0382166000908152601160205260409081902081516101e08101909252816080810182600b8282826020028201915b81548152602001906001019080831161315e5750505050508152602001600b8201600b80602002604051908101604052809291906000905b828210156132395783820180546131ac9061541d565b80601f01602080910402602001604051908101604052809291908181526020018280546131d89061541d565b80156132255780601f106131fa57610100808354040283529160200191613225565b820191906000526020600020905b81548152906001019060200180831161320857829003601f168201915b505050505081526020019060010190613196565b5050505081526020016016820180546132519061541d565b80601f016020809104026020016040519081016040528092919081815260200182805461327d9061541d565b80156132ca5780601f1061329f576101008083540402835291602001916132ca565b820191906000526020600020905b8154815290600101906020018083116132ad57829003601f168201915b50505091835250506017919091015460ff16151560209091015292915050565b600a546001600160a01b031633146133145760405162461bcd60e51b8152600401610d7f90615452565b601d55565b6020818154811061267457600080fd5b6001600160a01b038116600090815260126020526040812054606091906001600160401b0381111561335d5761335d614b73565b604051908082528060200260200182016040528015613386578160200160208202803683370190505b5090506000805b60145481101561347a57846001600160a01b0316600e6000601484815481106133b8576133b8615661565b600091825260208083209091015483528201929092526040019020546001600160a01b031614801561341a5750600f6000601483815481106133fc576133fc615661565b90600052602060002001548152602001908152602001600020546000145b15613468576014818154811061343257613432615661565b906000526020600020015483838151811061344f5761344f615661565b6020908102919091010152816134648161554d565b9250505b806134728161554d565b91505061338d565b50909392505050565b600a546001600160a01b031633146134ad5760405162461bcd60e51b8152600401610d7f90615452565b6001600160a01b0381166135125760405162461bcd60e51b815260206004820152602660248201527f4f776e61626c653a206e6577206f776e657220697320746865207a65726f206160448201526564647265737360d01b6064820152608401610d7f565b612b6f81613ca4565b60116020526000908152604090206016810180546135389061541d565b80601f01602080910402602001604051908101604052809291908181526020018280546135649061541d565b80156135b15780601f10613586576101008083540402835291602001916135b1565b820191906000526020600020905b81548152906001019060200180831161359457829003601f168201915b5050506017909301549192505060ff1682565b60006001600160e01b0319821663780e9d6360e01b1480610c235750610c23826141bf565b6000818152600260205260408120546001600160a01b031680610c235760405162461bcd60e51b815260206004820152602960248201527f4552433732313a206f776e657220717565727920666f72206e6f6e657869737460448201526832b73a103a37b5b2b760b91b6064820152608401610d7f565b600081815260046020526040902080546001600160a01b0319166001600160a01b0384169081179091558190613695826135e9565b6001600160a01b03167f8c5be1e5ebec7d5bd14f71427d1e84f3dd0314c0f7b2291e5b200ac8c7c3b92560405160405180910390a45050565b6000818152600260205260408120546001600160a01b03166137475760405162461bcd60e51b815260206004820152602c60248201527f4552433732313a206f70657261746f7220717565727920666f72206e6f6e657860448201526b34b9ba32b73a103a37b5b2b760a11b6064820152608401610d7f565b6000613752836135e9565b9050806001600160a01b0316846001600160a01b0316148061378d5750836001600160a01b031661378284610d0a565b6001600160a01b0316145b806137bd57506001600160a01b0380821660009081526005602090815260408083209388168352929052205460ff165b949350505050565b826001600160a01b03166137d8826135e9565b6001600160a01b03161461383c5760405162461bcd60e51b815260206004820152602560248201527f4552433732313a207472616e736665722066726f6d20696e636f72726563742060448201526437bbb732b960d91b6064820152608401610d7f565b6001600160a01b03821661389e5760405162461bcd60e51b8152602060048201526024808201527f4552433732313a207472616e7366657220746f20746865207a65726f206164646044820152637265737360e01b6064820152608401610d7f565b6138a983838361420f565b6138b4600082613660565b6001600160a01b03831660009081526003602052604081208054600192906138dd908490615568565b90915550506001600160a01b038216600090815260036020526040812080546001929061390b90849061557f565b909155505060008181526002602052604080822080546001600160a01b0319166001600160a01b0386811691821790925591518493918716917fddf252ad1be2c89b69c2b068fc378daa952ba7f163c4a11628f55a4df523b3ef91a4505050565b60606000805b602454811015613a3b57836001600160a01b03166024828154811061399957613999615661565b6000918252602090912001546001600160a01b031614613a1b57602481815481106139c6576139c6615661565b6000918252602090912001546001600160a01b0316836139e68484615568565b815181106139f6576139f6615661565b60200260200101906001600160a01b031690816001600160a01b031681525050613a29565b81613a258161554d565b9250505b80613a338161554d565b915050613972565b50815161128a90602490602085019061488c565b6001600160a01b038116600090815260116020526040812060170154829060ff16613a8c5760405162461bcd60e51b8152600401610d7f90615610565b6001600160a01b03831660009081526011602052604080822081516101e08101909252816080810182600b8282826020028201915b815481526020019060010190808311613ac15750505050508152602001600b8201600b80602002604051908101604052809291906000905b82821015613b9c578382018054613b0f9061541d565b80601f0160208091040260200160405190810160405280929190818152602001828054613b3b9061541d565b8015613b885780601f10613b5d57610100808354040283529160200191613b88565b820191906000526020600020905b815481529060010190602001808311613b6b57829003601f168201915b505050505081526020019060010190613af9565b505050508152602001601682018054613bb49061541d565b80601f0160208091040260200160405190810160405280929190818152602001828054613be09061541d565b8015613c2d5780601f10613c0257610100808354040283529160200191613c2d565b820191906000526020600020905b815481529060010190602001808311613c1057829003601f168201915b50505091835250506017919091015460ff1615156020909101529050600080805b600b811015613c8d57613c61848261421a565b613c6b908461557f565b925081613c778161554d565b9250508080613c859061554d565b915050613c4e565b50613c9881836156fa565b94505050505b50919050565b600a80546001600160a01b038381166001600160a01b0319831681179093556040519116919082907f8be0079c531659141344cd1fd0a4f28419497f9722a3daafe3b4186f6b6457e090600090a35050565b6001600160a01b038216613d4c5760405162461bcd60e51b815260206004820181905260248201527f4552433732313a206d696e7420746f20746865207a65726f20616464726573736044820152606401610d7f565b6000818152600260205260409020546001600160a01b031615613db15760405162461bcd60e51b815260206004820152601c60248201527f4552433732313a20746f6b656e20616c7265616479206d696e746564000000006044820152606401610d7f565b613dbd6000838361420f565b6001600160a01b0382166000908152600360205260408120805460019290613de690849061557f565b909155505060008181526002602052604080822080546001600160a01b0319166001600160a01b03861690811790915590518392907fddf252ad1be2c89b69c2b068fc378daa952ba7f163c4a11628f55a4df523b3ef908290a45050565b816001600160a01b0316836001600160a01b03161415613ea65760405162461bcd60e51b815260206004820152601960248201527f4552433732313a20617070726f766520746f2063616c6c6572000000000000006044820152606401610d7f565b6001600160a01b03838116600081815260056020908152604080832094871680845294825291829020805460ff191686151590811790915591519182527f17307eab39ab6107e8899845ad3d59bd9653f200f220920489ca2b5937696c31910160405180910390a3505050565b613f1e8484846137c5565b613f2a848484846142df565b61128a5760405162461bcd60e51b8152600401610d7f9061570e565b606081613f6a5750506040805180820190915260018152600360fc1b602082015290565b8160005b8115613f945780613f7e8161554d565b9150613f8d9050600a836156fa565b9150613f6e565b6000816001600160401b03811115613fae57613fae614b73565b6040519080825280601f01601f191660200182016040528015613fd8576020820181803683370190505b5090505b84156137bd57613fed600183615568565b9150613ffa600a8661564d565b61400590603061557f565b60f81b81838151811061401a5761401a615661565b60200101906001600160f81b031916908160001a90535061403c600a866156fa565b9450613fdc565b60007f00000000000000000000000000000000000000000000000000000000000000006001600160a01b0316634000aea07f0000000000000000000000000000000000000000000000000000000000000000848660006040516020016140b3929190918252602082015260400190565b6040516020818303038152906040526040518463ffffffff1660e01b81526004016140e093929190615760565b6020604051808303816000875af11580156140ff573d6000803e3d6000fd5b505050506040513d601f19601f820116820180604052508101906141239190615787565b50600083815260196020818152604080842054815180840189905280830186905230606082015260808082018390528351808303909101815260a09091019092528151918301919091209387905291905261417f90600161557f565b6000858152601960205260409020556137bd8482604080516020808201949094528082019290925280518083038201815260609092019052805191012090565b60006001600160e01b031982166380ac58cd60e01b14806141f057506001600160e01b03198216635b5e139f60e01b145b80610c2357506301ffc9a760e01b6001600160e01b0319831614610c23565b610eb58383836143dd565b600080614240846000015184600b811061423657614236615661565b6020020151612ca5565b90506000846020015184600b811061425a5761425a615661565b602002015190506000816040516020016142749190615696565b60405160208183030381529060405280519060200120836020015160405160200161429f9190615696565b6040516020818303038152906040528051906020012014156142cb575061012082015161ffff16611ec6565b6142d58383614495565b9695505050505050565b60006001600160a01b0384163b156143d257604051630a85bd0160e11b81526001600160a01b0385169063150b7a02906143239033908990889088906004016157a4565b6020604051808303816000875af192505050801561435e575060408051601f3d908101601f1916820190925261435b918101906157d7565b60015b6143b8573d80801561438c576040519150601f19603f3d011682016040523d82523d6000602084013e614391565b606091505b5080516143b05760405162461bcd60e51b8152600401610d7f9061570e565b805181602001fd5b6001600160e01b031916630a85bd0160e11b1490506137bd565b506001949350505050565b6001600160a01b0383166144385761443381600880546000838152600960205260408120829055600182018355919091527ff3f7a9fe364faab93b216da50a3214154f22a0a2b415b23a84c8169e8b636ee30155565b61445b565b816001600160a01b0316836001600160a01b03161461445b5761445b8382614582565b6001600160a01b03821661447257610eb58161461f565b826001600160a01b0316826001600160a01b031614610eb557610eb582826146ce565b6000806064601e5485610120015161ffff166144b19190615677565b6144bb91906156fa565b905060005b8460a001515181101561457a57836040516020016144de9190615696565b604051602081830303815290604052805190602001208560a00151828151811061450a5761450a615661565b60200260200101516040516020016145229190615696565b604051602081830303815290604052805190602001201415614568576064601d5486610120015161ffff166145579190615677565b61456191906156fa565b915061457a565b806145728161554d565b9150506144c0565b509392505050565b6000600161458f84611efe565b6145999190615568565b6000838152600760205260409020549091508082146145ec576001600160a01b03841660009081526006602090815260408083208584528252808320548484528184208190558352600790915290208190555b5060009182526007602090815260408084208490556001600160a01b039094168352600681528383209183525290812055565b60085460009061463190600190615568565b6000838152600960205260408120546008805493945090928490811061465957614659615661565b90600052602060002001549050806008838154811061467a5761467a615661565b60009182526020808320909101929092558281526009909152604080822084905585825281205560088054806146b2576146b26157f4565b6001900381819060005260206000200160009055905550505050565b60006146d983611efe565b6001600160a01b039093166000908152600660209081526040808320868452825280832085905593825260079052919091209190915550565b82600b8101928215614740579160200282015b82811115614740578251825591602001919060010190614725565b506118949291506148e1565b82600b810192821561478c579160200282015b8281111561478c578251805161477c918491602090910190614798565b509160200191906001019061475f565b506118949291506148f6565b8280546147a49061541d565b90600052602060002090601f0160209004810192826147c65760008555614740565b82601f106147df57805160ff1916838001178555614740565b828001600101855582156147405791820182811115614740578251825591602001919060010190614725565b82805482825590600052602060002090810192821561478c579160200282015b8281111561478c5782518051614848918491602090910190614798565b509160200191906001019061482b565b604051806080016040528061486b614913565b8152602001614878614932565b815260606020820152600060409091015290565b828054828255906000526020600020908101928215614740579160200282015b8281111561474057825182546001600160a01b0319166001600160a01b039091161782556020909201916001909101906148ac565b5b8082111561189457600081556001016148e2565b8082111561189457600061490a828261495a565b506001016148f6565b604051806101600160405280600b906020820280368337509192915050565b604051806101600160405280600b905b60608152602001906001900390816149425790505090565b5080546149669061541d565b6000825580601f10614976575050565b601f016020900490600052602060002090810190612b6f91906148e1565b6001600160e01b031981168114612b6f57600080fd5b6000602082840312156149bc57600080fd5b8135612a3081614994565b6020808252825182820181905260009190848201906040850190845b818110156149ff578351835292840192918401916001016149e3565b50909695505050505050565b60005b83811015614a26578181015183820152602001614a0e565b8381111561128a5750506000910152565b60008151808452614a4f816020860160208601614a0b565b601f01601f19169290920160200192915050565b602081526000612a306020830184614a37565b600060208284031215614a8857600080fd5b5035919050565b80356001600160a01b0381168114614aa657600080fd5b919050565b60008060408385031215614abe57600080fd5b614ac783614a8f565b946020939093013593505050565b6000602080830181845280855180835260408601915060408160051b870101925083870160005b82811015614b2a57603f19888603018452614b18858351614a37565b94509285019290850190600101614afc565b5092979650505050505050565b600080600060608486031215614b4c57600080fd5b614b5584614a8f565b9250614b6360208501614a8f565b9150604084013590509250925092565b634e487b7160e01b600052604160045260246000fd5b60405161014081016001600160401b0381118282101715614bac57614bac614b73565b60405290565b60405161016081016001600160401b0381118282101715614bac57614bac614b73565b604051601f8201601f191681016001600160401b0381118282101715614bfd57614bfd614b73565b604052919050565b60006001600160401b03831115614c1e57614c1e614b73565b614c31601f8401601f1916602001614bd5565b9050828152838383011115614c4557600080fd5b828260208301376000602084830101529392505050565b600082601f830112614c6d57600080fd5b612a3083833560208501614c05565b60008060408385031215614c8f57600080fd5b82356001600160401b03811115614ca557600080fd5b614cb185828601614c5c565b95602094909401359450505050565b60008060408385031215614cd357600080fd5b50508035926020909101359150565b600060208284031215614cf457600080fd5b612a3082614a8f565b600082601f830112614d0e57600080fd5b614d16614bb2565b80610160840185811115614d2957600080fd5b845b81811015614d655780356001600160401b03811115614d4a5760008081fd5b614d5688828901614c5c565b85525060209384019301614d2b565b509095945050505050565b60008060006101a08486031215614d8657600080fd5b84601f850112614d9557600080fd5b614d9d614bb2565b80610160860187811115614db057600080fd5b865b81811015614dca578035845260209384019301614db2565b509094503590506001600160401b0380821115614de657600080fd5b614df287838801614cfd565b9350610180860135915080821115614e0957600080fd5b50614e1686828701614c5c565b9150509250925092565b600082601f830112614e3157600080fd5b813560206001600160401b0380831115614e4d57614e4d614b73565b8260051b614e5c838201614bd5565b9384528581018301938381019088861115614e7657600080fd5b84880192505b85831015614eb257823584811115614e945760008081fd5b614ea28a87838c0101614c5c565b8352509184019190840190614e7c565b98975050505050505050565b80356001600160401b0381168114614aa657600080fd5b803561ffff81168114614aa657600080fd5b600060208284031215614ef957600080fd5b81356001600160401b0380821115614f1057600080fd5b908301906101408286031215614f2557600080fd5b614f2d614b89565b823582811115614f3c57600080fd5b614f4887828601614c5c565b825250602083013582811115614f5d57600080fd5b614f6987828601614c5c565b602083015250604083013582811115614f8157600080fd5b614f8d87828601614c5c565b604083015250606083013582811115614fa557600080fd5b614fb187828601614c5c565b606083015250608083013582811115614fc957600080fd5b614fd587828601614c5c565b60808301525060a083013582811115614fed57600080fd5b614ff987828601614e20565b60a08301525060c083013560c082015261501560e08401614ebe565b60e0820152610100915061502a828401614ebe565b82820152610120915061503e828401614ed5565b91810191909152949350505050565b8015158114612b6f57600080fd5b6000806040838503121561506e57600080fd5b61507783614a8f565b915060208301356150878161504d565b809150509250929050565b600080600080608085870312156150a857600080fd5b6150b185614a8f565b93506150bf60208601614a8f565b92506040850135915060608501356001600160401b038111156150e157600080fd5b8501601f810187136150f257600080fd5b61510187823560208401614c05565b91505092959194509250565b60006020828403121561511f57600080fd5b81356001600160401b0381111561513557600080fd5b6137bd84828501614c5c565b6000806040838503121561515457600080fd5b82356001600160401b038082111561516b57600080fd5b61517786838701614c5c565b9350602085013591508082111561518d57600080fd5b5061519a85828601614e20565b9150509250929050565b600081518084526020808501808196508360051b8101915082860160005b858110156151ec5782840389526151da848351614a37565b988501989350908401906001016151c2565b5091979650505050505050565b6020815260008251610140806020850152615218610160850183614a37565b91506020850151601f19808685030160408701526152368483614a37565b935060408701519150808685030160608701526152538483614a37565b935060608701519150808685030160808701526152708483614a37565b935060808701519150808685030160a087015261528d8483614a37565b935060a08701519150808685030160c0870152506152ab83826151a4565b92505060c085015160e085015260e08501516101006152d4818701836001600160401b03169052565b86015190506101206152f0868201836001600160401b03169052565b9095015161ffff1693019290925250919050565b60208082528251600091906101e08401838584015b600b821015615338578351815292840192600191909101908401615319565b5050858301516101c0610180870181905290925061034086019160005b600b811015615385576101df19888503018252615373848651614a37565b94860194935090850190600101615355565b50506040870151868303601f19016101a088015293506153a58285614a37565b9350606087015192506153bb8187018415159052565b509195945050505050565b600080604083850312156153d957600080fd5b6153e283614a8f565b91506153f060208401614a8f565b90509250929050565b60408152600061540c6040830185614a37565b905082151560208301529392505050565b600181811c9082168061543157607f821691505b60208210811415613c9e57634e487b7160e01b600052602260045260246000fd5b6020808252818101527f4f776e61626c653a2063616c6c6572206973206e6f7420746865206f776e6572604082015260600190565b60208082526031908201527f4552433732313a207472616e736665722063616c6c6572206973206e6f74206f6040820152701ddb995c881b9bdc88185c1c1c9bdd9959607a1b606082015260800190565b60208082526028908201527f5468697320706c61796572206973206e6f74206c6973746564206f6e20746865604082015267206d61726b65742160c01b606082015260800190565b634e487b7160e01b600052601160045260246000fd5b60008161554557615545615520565b506000190190565b600060001982141561556157615561615520565b5060010190565b60008282101561557a5761557a615520565b500390565b6000821982111561559257615592615520565b500190565b602080825260159082015274141b185e595c88191bd95cc81b9bdd08195e1a5cdd605a1b604082015260600190565b6020808252600e908201526d4e6f7420746865206f776e65722160901b604082015260600190565b600061ffff8083168181141561560657615606615520565b6001019392505050565b6020808252600d908201526c131a5b9d5c081b9bdd081cd95d609a1b604082015260600190565b634e487b7160e01b600052601260045260246000fd5b60008261565c5761565c615637565b500690565b634e487b7160e01b600052603260045260246000fd5b600081600019048311821515161561569157615691615520565b500290565b600082516156a8818460208701614a0b565b9190910192915050565b600083516156c4818460208801614a0b565b8351908301906156d8818360208801614a0b565b01949350505050565b6000602082840312156156f357600080fd5b5051919050565b60008261570957615709615637565b500490565b60208082526032908201527f4552433732313a207472616e7366657220746f206e6f6e20455243373231526560408201527131b2b4bb32b91034b6b83632b6b2b73a32b960711b606082015260800190565b60018060a01b0384168152826020820152606060408201526000611ec66060830184614a37565b60006020828403121561579957600080fd5b8151612a308161504d565b6001600160a01b03858116825284166020820152604081018390526080606082018190526000906142d590830184614a37565b6000602082840312156157e957600080fd5b8151612a3081614994565b634e487b7160e01b600052603160045260246000fdfea26469706673582212200edda8e45413fed6150fe0bc0890b9e591e8a37fe5d424f4d813c1356215d14064736f6c634300080c0033c97bfaf2f8ee708c303a06d134f5ecd8389ae0432af62dc132a24118292866bb",
  "linkReferences": {},
  "deployedLinkReferences": {}
}