{
  "_format": "hh-sol-artifact-1",
  "contractName": "Footlink",
  "sourceName": "contracts/Footlink.sol",
  "abi": [
    {
      "inputs": [],
      "stateMutability": "nonpayable",
      "type": "constructor"
    },
    {
      "anonymous": false,
      "inputs": [
        {
          "indexed": true,
          "internalType": "address",
          "name": "owner",
          "type": "address"
        },
        {
          "indexed": true,
          "internalType": "address",
          "name": "approved",
          "type": "address"
        },
        {
          "indexed": true,
          "internalType": "uint256",
          "name": "tokenId",
          "type": "uint256"
        }
      ],
      "name": "Approval",
      "type": "event"
    },
    {
      "anonymous": false,
      "inputs": [
        {
          "indexed": true,
          "internalType": "address",
          "name": "owner",
          "type": "address"
        },
        {
          "indexed": true,
          "internalType": "address",
          "name": "operator",
          "type": "address"
        },
        {
          "indexed": false,
          "internalType": "bool",
          "name": "approved",
          "type": "bool"
        }
      ],
      "name": "ApprovalForAll",
      "type": "event"
    },
    {
      "anonymous": false,
      "inputs": [
        {
          "indexed": true,
          "internalType": "address",
          "name": "previousOwner",
          "type": "address"
        },
        {
          "indexed": true,
          "internalType": "address",
          "name": "newOwner",
          "type": "address"
        }
      ],
      "name": "OwnershipTransferred",
      "type": "event"
    },
    {
      "anonymous": false,
      "inputs": [
        {
          "indexed": false,
          "internalType": "uint256",
          "name": "playerId",
          "type": "uint256"
        }
      ],
      "name": "PlayerAdded",
      "type": "event"
    },
    {
      "anonymous": false,
      "inputs": [
        {
          "indexed": true,
          "internalType": "address",
          "name": "from",
          "type": "address"
        },
        {
          "indexed": true,
          "internalType": "address",
          "name": "to",
          "type": "address"
        },
        {
          "indexed": true,
          "internalType": "uint256",
          "name": "tokenId",
          "type": "uint256"
        }
      ],
      "name": "Transfer",
      "type": "event"
    },
    {
      "inputs": [
        {
          "internalType": "address",
          "name": "to",
          "type": "address"
        },
        {
          "internalType": "uint256",
          "name": "tokenId",
          "type": "uint256"
        }
      ],
      "name": "approve",
      "outputs": [],
      "stateMutability": "nonpayable",
      "type": "function"
    },
    {
      "inputs": [
        {
          "internalType": "address",
          "name": "owner",
          "type": "address"
        }
      ],
      "name": "balanceOf",
      "outputs": [
        {
          "internalType": "uint256",
          "name": "",
          "type": "uint256"
        }
      ],
      "stateMutability": "view",
      "type": "function"
    },
    {
      "inputs": [
        {
          "internalType": "uint256",
          "name": "tokenId",
          "type": "uint256"
        }
      ],
      "name": "getApproved",
      "outputs": [
        {
          "internalType": "address",
          "name": "",
          "type": "address"
        }
      ],
      "stateMutability": "view",
      "type": "function"
    },
    {
      "inputs": [],
      "name": "getBalance",
      "outputs": [
        {
          "internalType": "uint256",
          "name": "",
          "type": "uint256"
        }
      ],
      "stateMutability": "view",
      "type": "function"
    },
    {
      "inputs": [],
      "name": "getListedPlayers",
      "outputs": [
        {
          "internalType": "uint256[]",
          "name": "",
          "type": "uint256[]"
        }
      ],
      "stateMutability": "view",
      "type": "function"
    },
    {
      "inputs": [
        {
          "internalType": "uint256",
          "name": "_id",
          "type": "uint256"
        }
      ],
      "name": "getPlayer",
      "outputs": [
        {
          "components": [
            {
              "internalType": "string",
              "name": "name",
              "type": "string"
            },
            {
              "internalType": "string",
              "name": "preferredPosition",
              "type": "string"
            },
            {
              "internalType": "string",
              "name": "imageURI",
              "type": "string"
            },
            {
              "internalType": "string",
              "name": "themeColor",
              "type": "string"
            },
            {
              "internalType": "string",
              "name": "textColor",
              "type": "string"
            },
            {
              "internalType": "string[]",
              "name": "suitablePositions",
              "type": "string[]"
            },
            {
              "internalType": "uint256",
              "name": "id",
              "type": "uint256"
            },
            {
              "internalType": "uint64",
              "name": "dob",
              "type": "uint64"
            },
            {
              "internalType": "uint64",
              "name": "lastUpgrade",
              "type": "uint64"
            },
            {
              "internalType": "uint16",
              "name": "level",
              "type": "uint16"
            }
          ],
          "internalType": "struct Footlink.Player",
          "name": "",
          "type": "tuple"
        }
      ],
      "stateMutability": "view",
      "type": "function"
    },
    {
      "inputs": [
        {
          "internalType": "uint256",
          "name": "_id",
          "type": "uint256"
        }
      ],
      "name": "getPlayerExists",
      "outputs": [
        {
          "internalType": "bool",
          "name": "",
          "type": "bool"
        }
      ],
      "stateMutability": "view",
      "type": "function"
    },
    {
      "inputs": [
        {
          "internalType": "address",
          "name": "_owner",
          "type": "address"
        }
      ],
      "name": "getPlayersByOwner",
      "outputs": [
        {
          "internalType": "uint256[]",
          "name": "",
          "type": "uint256[]"
        }
      ],
      "stateMutability": "view",
      "type": "function"
    },
    {
      "inputs": [
        {
          "internalType": "address",
          "name": "owner",
          "type": "address"
        },
        {
          "internalType": "address",
          "name": "operator",
          "type": "address"
        }
      ],
      "name": "isApprovedForAll",
      "outputs": [
        {
          "internalType": "bool",
          "name": "",
          "type": "bool"
        }
      ],
      "stateMutability": "view",
      "type": "function"
    },
    {
      "inputs": [
        {
          "internalType": "address",
          "name": "",
          "type": "address"
        }
      ],
      "name": "lineUps",
      "outputs": [
        {
          "internalType": "string",
          "name": "formation",
          "type": "string"
        },
        {
          "internalType": "bool",
          "name": "isValid",
          "type": "bool"
        }
      ],
      "stateMutability": "view",
      "type": "function"
    },
    {
      "inputs": [
        {
          "internalType": "uint256",
          "name": "",
          "type": "uint256"
        }
      ],
      "name": "listedPlayers",
      "outputs": [
        {
          "internalType": "uint256",
          "name": "",
          "type": "uint256"
        }
      ],
      "stateMutability": "view",
      "type": "function"
    },
    {
      "inputs": [
        {
          "internalType": "uint256",
          "name": "",
          "type": "uint256"
        }
      ],
      "name": "listedPlayersPrices",
      "outputs": [
        {
          "internalType": "uint256",
          "name": "",
          "type": "uint256"
        }
      ],
      "stateMutability": "view",
      "type": "function"
    },
    {
      "inputs": [
        {
          "components": [
            {
              "internalType": "string",
              "name": "name",
              "type": "string"
            },
            {
              "internalType": "string",
              "name": "preferredPosition",
              "type": "string"
            },
            {
              "internalType": "string",
              "name": "imageURI",
              "type": "string"
            },
            {
              "internalType": "string",
              "name": "themeColor",
              "type": "string"
            },
            {
              "internalType": "string",
              "name": "textColor",
              "type": "string"
            },
            {
              "internalType": "string[]",
              "name": "suitablePositions",
              "type": "string[]"
            },
            {
              "internalType": "uint256",
              "name": "id",
              "type": "uint256"
            },
            {
              "internalType": "uint64",
              "name": "dob",
              "type": "uint64"
            },
            {
              "internalType": "uint64",
              "name": "lastUpgrade",
              "type": "uint64"
            },
            {
              "internalType": "uint16",
              "name": "level",
              "type": "uint16"
            }
          ],
          "internalType": "struct Footlink.Player",
          "name": "_player",
          "type": "tuple"
        }
      ],
      "name": "mint",
      "outputs": [],
      "stateMutability": "nonpayable",
      "type": "function"
    },
    {
      "inputs": [],
      "name": "name",
      "outputs": [
        {
          "internalType": "string",
          "name": "",
          "type": "string"
        }
      ],
      "stateMutability": "view",
      "type": "function"
    },
    {
      "inputs": [],
      "name": "owner",
      "outputs": [
        {
          "internalType": "address",
          "name": "",
          "type": "address"
        }
      ],
      "stateMutability": "view",
      "type": "function"
    },
    {
      "inputs": [
        {
          "internalType": "uint256",
          "name": "tokenId",
          "type": "uint256"
        }
      ],
      "name": "ownerOf",
      "outputs": [
        {
          "internalType": "address",
          "name": "",
          "type": "address"
        }
      ],
      "stateMutability": "view",
      "type": "function"
    },
    {
      "inputs": [
        {
          "internalType": "uint256",
          "name": "",
          "type": "uint256"
        }
      ],
      "name": "playerToOwner",
      "outputs": [
        {
          "internalType": "address",
          "name": "",
          "type": "address"
        }
      ],
      "stateMutability": "view",
      "type": "function"
    },
    {
      "inputs": [],
      "name": "renounceOwnership",
      "outputs": [],
      "stateMutability": "nonpayable",
      "type": "function"
    },
    {
      "inputs": [
        {
          "internalType": "address",
          "name": "from",
          "type": "address"
        },
        {
          "internalType": "address",
          "name": "to",
          "type": "address"
        },
        {
          "internalType": "uint256",
          "name": "tokenId",
          "type": "uint256"
        }
      ],
      "name": "safeTransferFrom",
      "outputs": [],
      "stateMutability": "nonpayable",
      "type": "function"
    },
    {
      "inputs": [
        {
          "internalType": "address",
          "name": "from",
          "type": "address"
        },
        {
          "internalType": "address",
          "name": "to",
          "type": "address"
        },
        {
          "internalType": "uint256",
          "name": "tokenId",
          "type": "uint256"
        },
        {
          "internalType": "bytes",
          "name": "_data",
          "type": "bytes"
        }
      ],
      "name": "safeTransferFrom",
      "outputs": [],
      "stateMutability": "nonpayable",
      "type": "function"
    },
    {
      "inputs": [
        {
          "internalType": "address",
          "name": "operator",
          "type": "address"
        },
        {
          "internalType": "bool",
          "name": "approved",
          "type": "bool"
        }
      ],
      "name": "setApprovalForAll",
      "outputs": [],
      "stateMutability": "nonpayable",
      "type": "function"
    },
    {
      "inputs": [
        {
          "internalType": "bytes4",
          "name": "interfaceId",
          "type": "bytes4"
        }
      ],
      "name": "supportsInterface",
      "outputs": [
        {
          "internalType": "bool",
          "name": "",
          "type": "bool"
        }
      ],
      "stateMutability": "view",
      "type": "function"
    },
    {
      "inputs": [],
      "name": "symbol",
      "outputs": [
        {
          "internalType": "string",
          "name": "",
          "type": "string"
        }
      ],
      "stateMutability": "view",
      "type": "function"
    },
    {
      "inputs": [
        {
          "internalType": "uint256",
          "name": "index",
          "type": "uint256"
        }
      ],
      "name": "tokenByIndex",
      "outputs": [
        {
          "internalType": "uint256",
          "name": "",
          "type": "uint256"
        }
      ],
      "stateMutability": "view",
      "type": "function"
    },
    {
      "inputs": [
        {
          "internalType": "address",
          "name": "owner",
          "type": "address"
        },
        {
          "internalType": "uint256",
          "name": "index",
          "type": "uint256"
        }
      ],
      "name": "tokenOfOwnerByIndex",
      "outputs": [
        {
          "internalType": "uint256",
          "name": "",
          "type": "uint256"
        }
      ],
      "stateMutability": "view",
      "type": "function"
    },
    {
      "inputs": [
        {
          "internalType": "uint256",
          "name": "tokenId",
          "type": "uint256"
        }
      ],
      "name": "tokenURI",
      "outputs": [
        {
          "internalType": "string",
          "name": "",
          "type": "string"
        }
      ],
      "stateMutability": "view",
      "type": "function"
    },
    {
      "inputs": [],
      "name": "totalSupply",
      "outputs": [
        {
          "internalType": "uint256",
          "name": "",
          "type": "uint256"
        }
      ],
      "stateMutability": "view",
      "type": "function"
    },
    {
      "inputs": [
        {
          "internalType": "address",
          "name": "from",
          "type": "address"
        },
        {
          "internalType": "address",
          "name": "to",
          "type": "address"
        },
        {
          "internalType": "uint256",
          "name": "tokenId",
          "type": "uint256"
        }
      ],
      "name": "transferFrom",
      "outputs": [],
      "stateMutability": "nonpayable",
      "type": "function"
    },
    {
      "inputs": [
        {
          "internalType": "address",
          "name": "newOwner",
          "type": "address"
        }
      ],
      "name": "transferOwnership",
      "outputs": [],
      "stateMutability": "nonpayable",
      "type": "function"
    },
    {
      "inputs": [
        {
          "internalType": "uint256",
          "name": "_price",
          "type": "uint256"
        }
      ],
      "name": "withdraw",
      "outputs": [],
      "stateMutability": "nonpayable",
      "type": "function"
    }
  ],
  "bytecode": "0x60806040523480156200001157600080fd5b506040805180820182526008815267466f6f746c696e6b60c01b60208083019182528351808501909452600484526321a62aa160e11b9084015281519192916200005e91600091620000ed565b50805162000074906001906020840190620000ed565b505050620000916200008b6200009760201b60201c565b6200009b565b620001d0565b3390565b600a80546001600160a01b038381166001600160a01b0319831681179093556040519116919082907f8be0079c531659141344cd1fd0a4f28419497f9722a3daafe3b4186f6b6457e090600090a35050565b828054620000fb9062000193565b90600052602060002090601f0160209004810192826200011f57600085556200016a565b82601f106200013a57805160ff19168380011785556200016a565b828001600101855582156200016a579182015b828111156200016a5782518255916020019190600101906200014d565b50620001789291506200017c565b5090565b5b808211156200017857600081556001016200017d565b600181811c90821680620001a857607f821691505b60208210811415620001ca57634e487b7160e01b600052602260045260246000fd5b50919050565b612bc980620001e06000396000f3fe608060405234801561001057600080fd5b50600436106101da5760003560e01c80636433228511610104578063a22cb465116100a2578063e985e9c511610071578063e985e9c514610428578063eef2fc1f14610464578063f2fde38b14610477578063fd32f9181461048a57600080fd5b8063a22cb465146103cf578063b88d4fde146103e2578063c87b56dd146103f5578063e55ae4e81461040857600080fd5b80638da5cb5b116100de5780638da5cb5b14610390578063923e5c6a146103a157806395d89b41146103b45780639d167622146103bc57600080fd5b8063643322851461035557806370a0823114610375578063715018a61461038857600080fd5b806319b90d271161017c57806342842e0e1161014b57806342842e0e146102f15780634f6ccce714610304578063580adaa3146103175780636352211e1461034257600080fd5b806319b90d271461028f57806323b872dd146102b85780632e1a7d4d146102cb5780632f745c59146102de57600080fd5b8063081812fc116101b8578063081812fc14610231578063095ea7b31461025c57806312065fe01461027157806318160ddd1461028757600080fd5b806301ffc9a7146101df57806305901e891461020757806306fdde031461021c575b600080fd5b6101f26101ed36600461222a565b6104ab565b60405190151581526020015b60405180910390f35b61020f6104bc565b6040516101fe9190612247565b610224610514565b6040516101fe91906122e3565b61024461023f3660046122f6565b61059d565b6040516001600160a01b0390911681526020016101fe565b61026f61026a36600461232b565b610637565b005b61027961074d565b6040519081526020016101fe565b600854610279565b61024461029d3660046122f6565b600e602052600090815260409020546001600160a01b031681565b61026f6102c6366004612355565b61077f565b61026f6102d93660046122f6565b6107b0565b6102796102ec36600461232b565b6108e1565b61026f6102ff366004612355565b610977565b6102796103123660046122f6565b610992565b6101f26103253660046122f6565b6000908152600e60205260409020546001600160a01b0316151590565b6102446103503660046122f6565b610a25565b6102796103633660046122f6565b60106020526000908152604090205481565b610279610383366004612391565b610a30565b61026f610ab7565b600a546001600160a01b0316610244565b6102796103af3660046122f6565b610aed565b610224610b0e565b61026f6103ca366004612559565b610b1d565b61026f6103dd3660046126bf565b610d9b565b61026f6103f03660046126fb565b610daa565b6102246104033660046122f6565b610de2565b61041b6104163660046122f6565b610eca565b6040516101fe91906127cb565b6101f26104363660046128d6565b6001600160a01b03918216600090815260056020908152604080832093909416825291909152205460ff1690565b61020f610472366004612391565b611345565b61026f610485366004612391565b61149f565b61049d610498366004612391565b61153a565b6040516101fe929190612909565b60006104b6826115e3565b92915050565b6060601380548060200260200160405190810160405280929190818152602001828054801561050a57602002820191906000526020600020905b8154815260200190600101908083116104f6575b5050505050905090565b6060600080546105239061292d565b80601f016020809104026020016040519081016040528092919081815260200182805461054f9061292d565b801561050a5780601f106105715761010080835404028352916020019161050a565b820191906000526020600020905b81548152906001019060200180831161057f57509395945050505050565b6000818152600260205260408120546001600160a01b031661061b5760405162461bcd60e51b815260206004820152602c60248201527f4552433732313a20617070726f76656420717565727920666f72206e6f6e657860448201526b34b9ba32b73a103a37b5b2b760a11b60648201526084015b60405180910390fd5b506000908152600460205260409020546001600160a01b031690565b600061064282611608565b9050806001600160a01b0316836001600160a01b031614156106b05760405162461bcd60e51b815260206004820152602160248201527f4552433732313a20617070726f76616c20746f2063757272656e74206f776e656044820152603960f91b6064820152608401610612565b336001600160a01b03821614806106cc57506106cc8133610436565b61073e5760405162461bcd60e51b815260206004820152603860248201527f4552433732313a20617070726f76652063616c6c6572206973206e6f74206f7760448201527f6e6572206e6f7220617070726f76656420666f7220616c6c00000000000000006064820152608401610612565b610748838361167f565b505050565b600a546000906001600160a01b0316331461077a5760405162461bcd60e51b815260040161061290612968565b504790565b61078933826116ed565b6107a55760405162461bcd60e51b81526004016106129061299d565b6107488383836117e4565b600a546001600160a01b031633146107da5760405162461bcd60e51b815260040161061290612968565b804710156108355760405162461bcd60e51b815260206004820152602260248201527f5468652070726963652069732067726561746572207468616e2062616c616e63604482015261652160f01b6064820152608401610612565b6040513390600090829084908381818185875af1925050503d8060008114610879576040519150601f19603f3d011682016040523d82523d6000602084013e61087e565b606091505b50509050806107485760405162461bcd60e51b815260206004820152602960248201527f5472616e73616374696f6e206661696c65642c20636f756c64206e6f742073656044820152686e642066756e64732160b81b6064820152608401610612565b60006108ec83610a30565b821061094e5760405162461bcd60e51b815260206004820152602b60248201527f455243373231456e756d657261626c653a206f776e657220696e646578206f7560448201526a74206f6620626f756e647360a81b6064820152608401610612565b506001600160a01b03919091166000908152600660209081526040808320938352929052205490565b61074883838360405180602001604052806000815250610daa565b600061099d60085490565b8210610a005760405162461bcd60e51b815260206004820152602c60248201527f455243373231456e756d657261626c653a20676c6f62616c20696e646578206f60448201526b7574206f6620626f756e647360a01b6064820152608401610612565b60088281548110610a1357610a136129ee565b90600052602060002001549050919050565b60006104b682611608565b60006001600160a01b038216610a9b5760405162461bcd60e51b815260206004820152602a60248201527f4552433732313a2062616c616e636520717565727920666f7220746865207a65604482015269726f206164647265737360b01b6064820152608401610612565b506001600160a01b031660009081526003602052604090205490565b600a546001600160a01b03163314610ae15760405162461bcd60e51b815260040161061290612968565b610aeb600061198b565b565b60138181548110610afd57600080fd5b600091825260209091200154905081565b6060600180546105239061292d565b600a546001600160a01b03163314610b475760405162461bcd60e51b815260040161061290612968565b60c08101516000908152600e60205260409020546001600160a01b031615610ba25760405162461bcd60e51b815260206004820152600e60248201526d506c61796572204578697374732160901b6044820152606401610612565b610bb0600b80546001019055565b600b5460c082018190526000908152600d60209081526040909120825180518493610bdf9284929101906120cb565b506020828101518051610bf892600185019201906120cb565b5060408201518051610c149160028401916020909101906120cb565b5060608201518051610c309160038401916020909101906120cb565b5060808201518051610c4c9160048401916020909101906120cb565b5060a08201518051610c6891600584019160209091019061214f565b5060c082810151600683015560e0830151600790920180546101008501516101209095015161ffff16600160801b0261ffff60801b196001600160401b03968716600160401b026fffffffffffffffffffffffffffffffff1990931696909516959095171792909216929092179055810180516014805460018101825560009182527fce6d7b5282bd9a3661ae061feed1dbda4e52ab073b1f9285be6e155d9c38d4ec019190915590518152600e6020908152604080832080546001600160a01b03191633908117909155835260129091528120805491610d4883612a1a565b9190505550610d5b338260c001516119dd565b7f5af403e238a3f8f7d43c05ff2fac53c833e031e8fb8ec011b3c8e073d870ad7b8160c00151604051610d9091815260200190565b60405180910390a150565b610da6338383611b2b565b5050565b610db433836116ed565b610dd05760405162461bcd60e51b81526004016106129061299d565b610ddc84848484611bfa565b50505050565b6000818152600260205260409020546060906001600160a01b0316610e615760405162461bcd60e51b815260206004820152602f60248201527f4552433732314d657461646174613a2055524920717565727920666f72206e6f60448201526e3732bc34b9ba32b73a103a37b5b2b760891b6064820152608401610612565b6000610e7860408051602081019091526000815290565b90506000815111610e985760405180602001604052806000815250610ec3565b80610ea284611c2d565b604051602001610eb3929190612a35565b6040516020818303038152906040525b9392505050565b610f366040518061014001604052806060815260200160608152602001606081526020016060815260200160608152602001606081526020016000815260200160006001600160401b0316815260200160006001600160401b03168152602001600061ffff1681525090565b6000828152600d60205260409081902081516101408101909252805482908290610f5f9061292d565b80601f0160208091040260200160405190810160405280929190818152602001828054610f8b9061292d565b8015610fd85780601f10610fad57610100808354040283529160200191610fd8565b820191906000526020600020905b815481529060010190602001808311610fbb57829003601f168201915b50505050508152602001600182018054610ff19061292d565b80601f016020809104026020016040519081016040528092919081815260200182805461101d9061292d565b801561106a5780601f1061103f5761010080835404028352916020019161106a565b820191906000526020600020905b81548152906001019060200180831161104d57829003601f168201915b505050505081526020016002820180546110839061292d565b80601f01602080910402602001604051908101604052809291908181526020018280546110af9061292d565b80156110fc5780601f106110d1576101008083540402835291602001916110fc565b820191906000526020600020905b8154815290600101906020018083116110df57829003601f168201915b505050505081526020016003820180546111159061292d565b80601f01602080910402602001604051908101604052809291908181526020018280546111419061292d565b801561118e5780601f106111635761010080835404028352916020019161118e565b820191906000526020600020905b81548152906001019060200180831161117157829003601f168201915b505050505081526020016004820180546111a79061292d565b80601f01602080910402602001604051908101604052809291908181526020018280546111d39061292d565b80156112205780601f106111f557610100808354040283529160200191611220565b820191906000526020600020905b81548152906001019060200180831161120357829003601f168201915b5050505050815260200160058201805480602002602001604051908101604052809291908181526020016000905b828210156112fa57838290600052602060002001805461126d9061292d565b80601f01602080910402602001604051908101604052809291908181526020018280546112999061292d565b80156112e65780601f106112bb576101008083540402835291602001916112e6565b820191906000526020600020905b8154815290600101906020018083116112c957829003601f168201915b50505050508152602001906001019061124e565b50505090825250600682015460208201526007909101546001600160401b038082166040840152600160401b8204166060830152600160801b900461ffff1660809091015292915050565b6001600160a01b038116600090815260126020526040812054606091906001600160401b03811115611379576113796123ac565b6040519080825280602002602001820160405280156113a2578160200160208202803683370190505b5090506000805b60145481101561149657846001600160a01b0316600e6000601484815481106113d4576113d46129ee565b600091825260208083209091015483528201929092526040019020546001600160a01b03161480156114365750600f600060148381548110611418576114186129ee565b90600052602060002001548152602001908152602001600020546000145b15611484576014818154811061144e5761144e6129ee565b906000526020600020015483838151811061146b5761146b6129ee565b60209081029190910101528161148081612a1a565b9250505b8061148e81612a1a565b9150506113a9565b50909392505050565b600a546001600160a01b031633146114c95760405162461bcd60e51b815260040161061290612968565b6001600160a01b03811661152e5760405162461bcd60e51b815260206004820152602660248201527f4f776e61626c653a206e6577206f776e657220697320746865207a65726f206160448201526564647265737360d01b6064820152608401610612565b6115378161198b565b50565b60116020526000908152604090206016810180546115579061292d565b80601f01602080910402602001604051908101604052809291908181526020018280546115839061292d565b80156115d05780601f106115a5576101008083540402835291602001916115d0565b820191906000526020600020905b8154815290600101906020018083116115b357829003601f168201915b5050506017909301549192505060ff1682565b60006001600160e01b0319821663780e9d6360e01b14806104b657506104b682611d2a565b6000818152600260205260408120546001600160a01b0316806104b65760405162461bcd60e51b815260206004820152602960248201527f4552433732313a206f776e657220717565727920666f72206e6f6e657869737460448201526832b73a103a37b5b2b760b91b6064820152608401610612565b600081815260046020526040902080546001600160a01b0319166001600160a01b03841690811790915581906116b482611608565b6001600160a01b03167f8c5be1e5ebec7d5bd14f71427d1e84f3dd0314c0f7b2291e5b200ac8c7c3b92560405160405180910390a45050565b6000818152600260205260408120546001600160a01b03166117665760405162461bcd60e51b815260206004820152602c60248201527f4552433732313a206f70657261746f7220717565727920666f72206e6f6e657860448201526b34b9ba32b73a103a37b5b2b760a11b6064820152608401610612565b600061177183611608565b9050806001600160a01b0316846001600160a01b031614806117ac5750836001600160a01b03166117a18461059d565b6001600160a01b0316145b806117dc57506001600160a01b0380821660009081526005602090815260408083209388168352929052205460ff165b949350505050565b826001600160a01b03166117f782611608565b6001600160a01b03161461185b5760405162461bcd60e51b815260206004820152602560248201527f4552433732313a207472616e736665722066726f6d20696e636f72726563742060448201526437bbb732b960d91b6064820152608401610612565b6001600160a01b0382166118bd5760405162461bcd60e51b8152602060048201526024808201527f4552433732313a207472616e7366657220746f20746865207a65726f206164646044820152637265737360e01b6064820152608401610612565b6118c8838383611d7a565b6118d360008261167f565b6001600160a01b03831660009081526003602052604081208054600192906118fc908490612a64565b90915550506001600160a01b038216600090815260036020526040812080546001929061192a908490612a7b565b909155505060008181526002602052604080822080546001600160a01b0319166001600160a01b0386811691821790925591518493918716917fddf252ad1be2c89b69c2b068fc378daa952ba7f163c4a11628f55a4df523b3ef91a4505050565b600a80546001600160a01b038381166001600160a01b0319831681179093556040519116919082907f8be0079c531659141344cd1fd0a4f28419497f9722a3daafe3b4186f6b6457e090600090a35050565b6001600160a01b038216611a335760405162461bcd60e51b815260206004820181905260248201527f4552433732313a206d696e7420746f20746865207a65726f20616464726573736044820152606401610612565b6000818152600260205260409020546001600160a01b031615611a985760405162461bcd60e51b815260206004820152601c60248201527f4552433732313a20746f6b656e20616c7265616479206d696e746564000000006044820152606401610612565b611aa460008383611d7a565b6001600160a01b0382166000908152600360205260408120805460019290611acd908490612a7b565b909155505060008181526002602052604080822080546001600160a01b0319166001600160a01b03861690811790915590518392907fddf252ad1be2c89b69c2b068fc378daa952ba7f163c4a11628f55a4df523b3ef908290a45050565b816001600160a01b0316836001600160a01b03161415611b8d5760405162461bcd60e51b815260206004820152601960248201527f4552433732313a20617070726f766520746f2063616c6c6572000000000000006044820152606401610612565b6001600160a01b03838116600081815260056020908152604080832094871680845294825291829020805460ff191686151590811790915591519182527f17307eab39ab6107e8899845ad3d59bd9653f200f220920489ca2b5937696c31910160405180910390a3505050565b611c058484846117e4565b611c1184848484611d85565b610ddc5760405162461bcd60e51b815260040161061290612a93565b606081611c515750506040805180820190915260018152600360fc1b602082015290565b8160005b8115611c7b5780611c6581612a1a565b9150611c749050600a83612afb565b9150611c55565b6000816001600160401b03811115611c9557611c956123ac565b6040519080825280601f01601f191660200182016040528015611cbf576020820181803683370190505b5090505b84156117dc57611cd4600183612a64565b9150611ce1600a86612b0f565b611cec906030612a7b565b60f81b818381518110611d0157611d016129ee565b60200101906001600160f81b031916908160001a905350611d23600a86612afb565b9450611cc3565b60006001600160e01b031982166380ac58cd60e01b1480611d5b57506001600160e01b03198216635b5e139f60e01b145b806104b657506301ffc9a760e01b6001600160e01b03198316146104b6565b610748838383611e83565b60006001600160a01b0384163b15611e7857604051630a85bd0160e11b81526001600160a01b0385169063150b7a0290611dc9903390899088908890600401612b23565b6020604051808303816000875af1925050508015611e04575060408051601f3d908101601f19168201909252611e0191810190612b60565b60015b611e5e573d808015611e32576040519150601f19603f3d011682016040523d82523d6000602084013e611e37565b606091505b508051611e565760405162461bcd60e51b815260040161061290612a93565b805181602001fd5b6001600160e01b031916630a85bd0160e11b1490506117dc565b506001949350505050565b6001600160a01b038316611ede57611ed981600880546000838152600960205260408120829055600182018355919091527ff3f7a9fe364faab93b216da50a3214154f22a0a2b415b23a84c8169e8b636ee30155565b611f01565b816001600160a01b0316836001600160a01b031614611f0157611f018382611f3b565b6001600160a01b038216611f185761074881611fd8565b826001600160a01b0316826001600160a01b031614610748576107488282612087565b60006001611f4884610a30565b611f529190612a64565b600083815260076020526040902054909150808214611fa5576001600160a01b03841660009081526006602090815260408083208584528252808320548484528184208190558352600790915290208190555b5060009182526007602090815260408084208490556001600160a01b039094168352600681528383209183525290812055565b600854600090611fea90600190612a64565b60008381526009602052604081205460088054939450909284908110612012576120126129ee565b906000526020600020015490508060088381548110612033576120336129ee565b600091825260208083209091019290925582815260099091526040808220849055858252812055600880548061206b5761206b612b7d565b6001900381819060005260206000200160009055905550505050565b600061209283610a30565b6001600160a01b039093166000908152600660209081526040808320868452825280832085905593825260079052919091209190915550565b8280546120d79061292d565b90600052602060002090601f0160209004810192826120f9576000855561213f565b82601f1061211257805160ff191683800117855561213f565b8280016001018555821561213f579182015b8281111561213f578251825591602001919060010190612124565b5061214b9291506121a8565b5090565b82805482825590600052602060002090810192821561219c579160200282015b8281111561219c578251805161218c9184916020909101906120cb565b509160200191906001019061216f565b5061214b9291506121bd565b5b8082111561214b57600081556001016121a9565b8082111561214b5760006121d182826121da565b506001016121bd565b5080546121e69061292d565b6000825580601f106121f6575050565b601f01602090049060005260206000209081019061153791906121a8565b6001600160e01b03198116811461153757600080fd5b60006020828403121561223c57600080fd5b8135610ec381612214565b6020808252825182820181905260009190848201906040850190845b8181101561227f57835183529284019291840191600101612263565b50909695505050505050565b60005b838110156122a657818101518382015260200161228e565b83811115610ddc5750506000910152565b600081518084526122cf81602086016020860161228b565b601f01601f19169290920160200192915050565b602081526000610ec360208301846122b7565b60006020828403121561230857600080fd5b5035919050565b80356001600160a01b038116811461232657600080fd5b919050565b6000806040838503121561233e57600080fd5b6123478361230f565b946020939093013593505050565b60008060006060848603121561236a57600080fd5b6123738461230f565b92506123816020850161230f565b9150604084013590509250925092565b6000602082840312156123a357600080fd5b610ec38261230f565b634e487b7160e01b600052604160045260246000fd5b60405161014081016001600160401b03811182821017156123e5576123e56123ac565b60405290565b604051601f8201601f191681016001600160401b0381118282101715612413576124136123ac565b604052919050565b60006001600160401b03831115612434576124346123ac565b612447601f8401601f19166020016123eb565b905082815283838301111561245b57600080fd5b828260208301376000602084830101529392505050565b600082601f83011261248357600080fd5b610ec38383356020850161241b565b600082601f8301126124a357600080fd5b813560206001600160401b03808311156124bf576124bf6123ac565b8260051b6124ce8382016123eb565b93845285810183019383810190888611156124e857600080fd5b84880192505b85831015612524578235848111156125065760008081fd5b6125148a87838c0101612472565b83525091840191908401906124ee565b98975050505050505050565b80356001600160401b038116811461232657600080fd5b803561ffff8116811461232657600080fd5b60006020828403121561256b57600080fd5b81356001600160401b038082111561258257600080fd5b90830190610140828603121561259757600080fd5b61259f6123c2565b8235828111156125ae57600080fd5b6125ba87828601612472565b8252506020830135828111156125cf57600080fd5b6125db87828601612472565b6020830152506040830135828111156125f357600080fd5b6125ff87828601612472565b60408301525060608301358281111561261757600080fd5b61262387828601612472565b60608301525060808301358281111561263b57600080fd5b61264787828601612472565b60808301525060a08301358281111561265f57600080fd5b61266b87828601612492565b60a08301525060c083013560c082015261268760e08401612530565b60e0820152610100915061269c828401612530565b8282015261012091506126b0828401612547565b91810191909152949350505050565b600080604083850312156126d257600080fd5b6126db8361230f565b9150602083013580151581146126f057600080fd5b809150509250929050565b6000806000806080858703121561271157600080fd5b61271a8561230f565b93506127286020860161230f565b92506040850135915060608501356001600160401b0381111561274a57600080fd5b8501601f8101871361275b57600080fd5b61276a8782356020840161241b565b91505092959194509250565b600081518084526020808501808196508360051b8101915082860160005b858110156127be5782840389526127ac8483516122b7565b98850198935090840190600101612794565b5091979650505050505050565b60208152600082516101408060208501526127ea6101608501836122b7565b91506020850151601f198086850301604087015261280884836122b7565b9350604087015191508086850301606087015261282584836122b7565b9350606087015191508086850301608087015261284284836122b7565b935060808701519150808685030160a087015261285f84836122b7565b935060a08701519150808685030160c08701525061287d8382612776565b92505060c085015160e085015260e08501516101006128a6818701836001600160401b03169052565b86015190506101206128c2868201836001600160401b03169052565b9095015161ffff1693019290925250919050565b600080604083850312156128e957600080fd5b6128f28361230f565b91506129006020840161230f565b90509250929050565b60408152600061291c60408301856122b7565b905082151560208301529392505050565b600181811c9082168061294157607f821691505b6020821081141561296257634e487b7160e01b600052602260045260246000fd5b50919050565b6020808252818101527f4f776e61626c653a2063616c6c6572206973206e6f7420746865206f776e6572604082015260600190565b60208082526031908201527f4552433732313a207472616e736665722063616c6c6572206973206e6f74206f6040820152701ddb995c881b9bdc88185c1c1c9bdd9959607a1b606082015260800190565b634e487b7160e01b600052603260045260246000fd5b634e487b7160e01b600052601160045260246000fd5b6000600019821415612a2e57612a2e612a04565b5060010190565b60008351612a4781846020880161228b565b835190830190612a5b81836020880161228b565b01949350505050565b600082821015612a7657612a76612a04565b500390565b60008219821115612a8e57612a8e612a04565b500190565b60208082526032908201527f4552433732313a207472616e7366657220746f206e6f6e20455243373231526560408201527131b2b4bb32b91034b6b83632b6b2b73a32b960711b606082015260800190565b634e487b7160e01b600052601260045260246000fd5b600082612b0a57612b0a612ae5565b500490565b600082612b1e57612b1e612ae5565b500690565b6001600160a01b0385811682528416602082015260408101839052608060608201819052600090612b56908301846122b7565b9695505050505050565b600060208284031215612b7257600080fd5b8151610ec381612214565b634e487b7160e01b600052603160045260246000fdfea2646970667358221220a5168628abc62e5d85b19b85483bcb106097834152906e68c80520fa8af2b54b64736f6c634300080c0033",
  "linkReferences": {},
  "deployedLinkReferences": {}
}