{
  "_format": "hh-sol-artifact-1",
  "contractName": "FootlinkTraining",
  "sourceName": "contracts/FootlinkTraining.sol",
  "abi": [
    {
      "anonymous": false,
      "inputs": [
        {
          "indexed": true,
          "internalType": "address",
          "name": "owner",
          "type": "address"
        },
        {
          "indexed": true,
          "internalType": "address",
          "name": "approved",
          "type": "address"
        },
        {
          "indexed": true,
          "internalType": "uint256",
          "name": "tokenId",
          "type": "uint256"
        }
      ],
      "name": "Approval",
      "type": "event"
    },
    {
      "anonymous": false,
      "inputs": [
        {
          "indexed": true,
          "internalType": "address",
          "name": "owner",
          "type": "address"
        },
        {
          "indexed": true,
          "internalType": "address",
          "name": "operator",
          "type": "address"
        },
        {
          "indexed": false,
          "internalType": "bool",
          "name": "approved",
          "type": "bool"
        }
      ],
      "name": "ApprovalForAll",
      "type": "event"
    },
    {
      "anonymous": false,
      "inputs": [
        {
          "indexed": false,
          "internalType": "uint256",
          "name": "playerId",
          "type": "uint256"
        }
      ],
      "name": "LevelUp",
      "type": "event"
    },
    {
      "anonymous": false,
      "inputs": [
        {
          "indexed": true,
          "internalType": "address",
          "name": "previousOwner",
          "type": "address"
        },
        {
          "indexed": true,
          "internalType": "address",
          "name": "newOwner",
          "type": "address"
        }
      ],
      "name": "OwnershipTransferred",
      "type": "event"
    },
    {
      "anonymous": false,
      "inputs": [
        {
          "indexed": false,
          "internalType": "uint256",
          "name": "playerId",
          "type": "uint256"
        }
      ],
      "name": "PlayerAdded",
      "type": "event"
    },
    {
      "anonymous": false,
      "inputs": [
        {
          "indexed": true,
          "internalType": "address",
          "name": "from",
          "type": "address"
        },
        {
          "indexed": true,
          "internalType": "address",
          "name": "to",
          "type": "address"
        },
        {
          "indexed": true,
          "internalType": "uint256",
          "name": "tokenId",
          "type": "uint256"
        }
      ],
      "name": "Transfer",
      "type": "event"
    },
    {
      "inputs": [
        {
          "internalType": "address",
          "name": "to",
          "type": "address"
        },
        {
          "internalType": "uint256",
          "name": "tokenId",
          "type": "uint256"
        }
      ],
      "name": "approve",
      "outputs": [],
      "stateMutability": "nonpayable",
      "type": "function"
    },
    {
      "inputs": [
        {
          "internalType": "address",
          "name": "owner",
          "type": "address"
        }
      ],
      "name": "balanceOf",
      "outputs": [
        {
          "internalType": "uint256",
          "name": "",
          "type": "uint256"
        }
      ],
      "stateMutability": "view",
      "type": "function"
    },
    {
      "inputs": [],
      "name": "cooldown",
      "outputs": [
        {
          "internalType": "uint256",
          "name": "",
          "type": "uint256"
        }
      ],
      "stateMutability": "view",
      "type": "function"
    },
    {
      "inputs": [],
      "name": "earnedThroughTraining",
      "outputs": [
        {
          "internalType": "uint256",
          "name": "",
          "type": "uint256"
        }
      ],
      "stateMutability": "view",
      "type": "function"
    },
    {
      "inputs": [],
      "name": "fee",
      "outputs": [
        {
          "internalType": "uint256",
          "name": "",
          "type": "uint256"
        }
      ],
      "stateMutability": "view",
      "type": "function"
    },
    {
      "inputs": [
        {
          "internalType": "uint256",
          "name": "tokenId",
          "type": "uint256"
        }
      ],
      "name": "getApproved",
      "outputs": [
        {
          "internalType": "address",
          "name": "",
          "type": "address"
        }
      ],
      "stateMutability": "view",
      "type": "function"
    },
    {
      "inputs": [],
      "name": "getBalance",
      "outputs": [
        {
          "internalType": "uint256",
          "name": "",
          "type": "uint256"
        }
      ],
      "stateMutability": "view",
      "type": "function"
    },
    {
      "inputs": [],
      "name": "getListedPlayers",
      "outputs": [
        {
          "internalType": "uint256[]",
          "name": "",
          "type": "uint256[]"
        }
      ],
      "stateMutability": "view",
      "type": "function"
    },
    {
      "inputs": [
        {
          "internalType": "uint256",
          "name": "_id",
          "type": "uint256"
        }
      ],
      "name": "getPlayer",
      "outputs": [
        {
          "components": [
            {
              "internalType": "string",
              "name": "name",
              "type": "string"
            },
            {
              "internalType": "string",
              "name": "preferredPosition",
              "type": "string"
            },
            {
              "internalType": "string",
              "name": "imageURI",
              "type": "string"
            },
            {
              "internalType": "string",
              "name": "themeColor",
              "type": "string"
            },
            {
              "internalType": "string",
              "name": "textColor",
              "type": "string"
            },
            {
              "internalType": "string[]",
              "name": "suitablePositions",
              "type": "string[]"
            },
            {
              "internalType": "uint256",
              "name": "id",
              "type": "uint256"
            },
            {
              "internalType": "uint64",
              "name": "dob",
              "type": "uint64"
            },
            {
              "internalType": "uint64",
              "name": "lastUpgrade",
              "type": "uint64"
            },
            {
              "internalType": "uint16",
              "name": "level",
              "type": "uint16"
            }
          ],
          "internalType": "struct Footlink.Player",
          "name": "",
          "type": "tuple"
        }
      ],
      "stateMutability": "view",
      "type": "function"
    },
    {
      "inputs": [
        {
          "internalType": "uint256",
          "name": "_id",
          "type": "uint256"
        }
      ],
      "name": "getPlayerExists",
      "outputs": [
        {
          "internalType": "bool",
          "name": "",
          "type": "bool"
        }
      ],
      "stateMutability": "view",
      "type": "function"
    },
    {
      "inputs": [
        {
          "internalType": "address",
          "name": "_owner",
          "type": "address"
        }
      ],
      "name": "getPlayersByOwner",
      "outputs": [
        {
          "internalType": "uint256[]",
          "name": "",
          "type": "uint256[]"
        }
      ],
      "stateMutability": "view",
      "type": "function"
    },
    {
      "inputs": [
        {
          "internalType": "address",
          "name": "owner",
          "type": "address"
        },
        {
          "internalType": "address",
          "name": "operator",
          "type": "address"
        }
      ],
      "name": "isApprovedForAll",
      "outputs": [
        {
          "internalType": "bool",
          "name": "",
          "type": "bool"
        }
      ],
      "stateMutability": "view",
      "type": "function"
    },
    {
      "inputs": [
        {
          "internalType": "address",
          "name": "",
          "type": "address"
        }
      ],
      "name": "lineUps",
      "outputs": [
        {
          "internalType": "string",
          "name": "formation",
          "type": "string"
        },
        {
          "internalType": "bool",
          "name": "isValid",
          "type": "bool"
        }
      ],
      "stateMutability": "view",
      "type": "function"
    },
    {
      "inputs": [
        {
          "internalType": "uint256",
          "name": "",
          "type": "uint256"
        }
      ],
      "name": "listedPlayers",
      "outputs": [
        {
          "internalType": "uint256",
          "name": "",
          "type": "uint256"
        }
      ],
      "stateMutability": "view",
      "type": "function"
    },
    {
      "inputs": [
        {
          "internalType": "uint256",
          "name": "",
          "type": "uint256"
        }
      ],
      "name": "listedPlayersPrices",
      "outputs": [
        {
          "internalType": "uint256",
          "name": "",
          "type": "uint256"
        }
      ],
      "stateMutability": "view",
      "type": "function"
    },
    {
      "inputs": [],
      "name": "maxLevel",
      "outputs": [
        {
          "internalType": "uint256",
          "name": "",
          "type": "uint256"
        }
      ],
      "stateMutability": "view",
      "type": "function"
    },
    {
      "inputs": [
        {
          "components": [
            {
              "internalType": "string",
              "name": "name",
              "type": "string"
            },
            {
              "internalType": "string",
              "name": "preferredPosition",
              "type": "string"
            },
            {
              "internalType": "string",
              "name": "imageURI",
              "type": "string"
            },
            {
              "internalType": "string",
              "name": "themeColor",
              "type": "string"
            },
            {
              "internalType": "string",
              "name": "textColor",
              "type": "string"
            },
            {
              "internalType": "string[]",
              "name": "suitablePositions",
              "type": "string[]"
            },
            {
              "internalType": "uint256",
              "name": "id",
              "type": "uint256"
            },
            {
              "internalType": "uint64",
              "name": "dob",
              "type": "uint64"
            },
            {
              "internalType": "uint64",
              "name": "lastUpgrade",
              "type": "uint64"
            },
            {
              "internalType": "uint16",
              "name": "level",
              "type": "uint16"
            }
          ],
          "internalType": "struct Footlink.Player",
          "name": "_player",
          "type": "tuple"
        }
      ],
      "name": "mint",
      "outputs": [],
      "stateMutability": "nonpayable",
      "type": "function"
    },
    {
      "inputs": [],
      "name": "name",
      "outputs": [
        {
          "internalType": "string",
          "name": "",
          "type": "string"
        }
      ],
      "stateMutability": "view",
      "type": "function"
    },
    {
      "inputs": [],
      "name": "owner",
      "outputs": [
        {
          "internalType": "address",
          "name": "",
          "type": "address"
        }
      ],
      "stateMutability": "view",
      "type": "function"
    },
    {
      "inputs": [
        {
          "internalType": "uint256",
          "name": "tokenId",
          "type": "uint256"
        }
      ],
      "name": "ownerOf",
      "outputs": [
        {
          "internalType": "address",
          "name": "",
          "type": "address"
        }
      ],
      "stateMutability": "view",
      "type": "function"
    },
    {
      "inputs": [
        {
          "internalType": "uint256",
          "name": "",
          "type": "uint256"
        }
      ],
      "name": "playerToOwner",
      "outputs": [
        {
          "internalType": "address",
          "name": "",
          "type": "address"
        }
      ],
      "stateMutability": "view",
      "type": "function"
    },
    {
      "inputs": [],
      "name": "renounceOwnership",
      "outputs": [],
      "stateMutability": "nonpayable",
      "type": "function"
    },
    {
      "inputs": [
        {
          "internalType": "address",
          "name": "from",
          "type": "address"
        },
        {
          "internalType": "address",
          "name": "to",
          "type": "address"
        },
        {
          "internalType": "uint256",
          "name": "tokenId",
          "type": "uint256"
        }
      ],
      "name": "safeTransferFrom",
      "outputs": [],
      "stateMutability": "nonpayable",
      "type": "function"
    },
    {
      "inputs": [
        {
          "internalType": "address",
          "name": "from",
          "type": "address"
        },
        {
          "internalType": "address",
          "name": "to",
          "type": "address"
        },
        {
          "internalType": "uint256",
          "name": "tokenId",
          "type": "uint256"
        },
        {
          "internalType": "bytes",
          "name": "_data",
          "type": "bytes"
        }
      ],
      "name": "safeTransferFrom",
      "outputs": [],
      "stateMutability": "nonpayable",
      "type": "function"
    },
    {
      "inputs": [
        {
          "internalType": "address",
          "name": "operator",
          "type": "address"
        },
        {
          "internalType": "bool",
          "name": "approved",
          "type": "bool"
        }
      ],
      "name": "setApprovalForAll",
      "outputs": [],
      "stateMutability": "nonpayable",
      "type": "function"
    },
    {
      "inputs": [
        {
          "internalType": "uint256",
          "name": "_cooldown",
          "type": "uint256"
        }
      ],
      "name": "setCooldown",
      "outputs": [],
      "stateMutability": "nonpayable",
      "type": "function"
    },
    {
      "inputs": [
        {
          "internalType": "uint256",
          "name": "_fee",
          "type": "uint256"
        }
      ],
      "name": "setFee",
      "outputs": [],
      "stateMutability": "nonpayable",
      "type": "function"
    },
    {
      "inputs": [
        {
          "internalType": "uint256",
          "name": "_level",
          "type": "uint256"
        }
      ],
      "name": "setMaxLevel",
      "outputs": [],
      "stateMutability": "nonpayable",
      "type": "function"
    },
    {
      "inputs": [
        {
          "internalType": "bytes4",
          "name": "interfaceId",
          "type": "bytes4"
        }
      ],
      "name": "supportsInterface",
      "outputs": [
        {
          "internalType": "bool",
          "name": "",
          "type": "bool"
        }
      ],
      "stateMutability": "view",
      "type": "function"
    },
    {
      "inputs": [],
      "name": "symbol",
      "outputs": [
        {
          "internalType": "string",
          "name": "",
          "type": "string"
        }
      ],
      "stateMutability": "view",
      "type": "function"
    },
    {
      "inputs": [
        {
          "internalType": "uint256",
          "name": "index",
          "type": "uint256"
        }
      ],
      "name": "tokenByIndex",
      "outputs": [
        {
          "internalType": "uint256",
          "name": "",
          "type": "uint256"
        }
      ],
      "stateMutability": "view",
      "type": "function"
    },
    {
      "inputs": [
        {
          "internalType": "address",
          "name": "owner",
          "type": "address"
        },
        {
          "internalType": "uint256",
          "name": "index",
          "type": "uint256"
        }
      ],
      "name": "tokenOfOwnerByIndex",
      "outputs": [
        {
          "internalType": "uint256",
          "name": "",
          "type": "uint256"
        }
      ],
      "stateMutability": "view",
      "type": "function"
    },
    {
      "inputs": [
        {
          "internalType": "uint256",
          "name": "tokenId",
          "type": "uint256"
        }
      ],
      "name": "tokenURI",
      "outputs": [
        {
          "internalType": "string",
          "name": "",
          "type": "string"
        }
      ],
      "stateMutability": "view",
      "type": "function"
    },
    {
      "inputs": [],
      "name": "totalSupply",
      "outputs": [
        {
          "internalType": "uint256",
          "name": "",
          "type": "uint256"
        }
      ],
      "stateMutability": "view",
      "type": "function"
    },
    {
      "inputs": [
        {
          "internalType": "uint256",
          "name": "_playerId",
          "type": "uint256"
        }
      ],
      "name": "train",
      "outputs": [],
      "stateMutability": "payable",
      "type": "function"
    },
    {
      "inputs": [
        {
          "internalType": "address",
          "name": "from",
          "type": "address"
        },
        {
          "internalType": "address",
          "name": "to",
          "type": "address"
        },
        {
          "internalType": "uint256",
          "name": "tokenId",
          "type": "uint256"
        }
      ],
      "name": "transferFrom",
      "outputs": [],
      "stateMutability": "nonpayable",
      "type": "function"
    },
    {
      "inputs": [
        {
          "internalType": "address",
          "name": "newOwner",
          "type": "address"
        }
      ],
      "name": "transferOwnership",
      "outputs": [],
      "stateMutability": "nonpayable",
      "type": "function"
    },
    {
      "inputs": [
        {
          "internalType": "uint256",
          "name": "_price",
          "type": "uint256"
        }
      ],
      "name": "withdraw",
      "outputs": [],
      "stateMutability": "nonpayable",
      "type": "function"
    }
  ],
  "bytecode": "0x608060405261a8c06015556729a2241af62c0000601655600060175560646018553480156200002d57600080fd5b506040805180820182526008815267466f6f746c696e6b60c01b60208083019182528351808501909452600484526321a62aa160e11b9084015281519192916200007a9160009162000109565b5080516200009090600190602084019062000109565b505050620000ad620000a7620000b360201b60201c565b620000b7565b620001ec565b3390565b600a80546001600160a01b038381166001600160a01b0319831681179093556040519116919082907f8be0079c531659141344cd1fd0a4f28419497f9722a3daafe3b4186f6b6457e090600090a35050565b8280546200011790620001af565b90600052602060002090601f0160209004810192826200013b576000855562000186565b82601f106200015657805160ff191683800117855562000186565b8280016001018555821562000186579182015b828111156200018657825182559160200191906001019062000169565b506200019492915062000198565b5090565b5b8082111562000194576000815560010162000199565b600181811c90821680620001c457607f821691505b60208210811415620001e657634e487b7160e01b600052602260045260246000fd5b50919050565b6131e580620001fc6000396000f3fe6080604052600436106102255760003560e01c806369fe0e2d11610123578063b88d4fde116100ab578063e55ae4e81161006f578063e55ae4e814610663578063e985e9c514610690578063eef2fc1f146106d9578063f2fde38b146106f9578063fd32f9181461071957600080fd5b8063b88d4fde146105e1578063c87b56dd14610601578063cc06c35914610621578063ddca3f4314610637578063e1a51a621461064d57600080fd5b80638da5cb5b116100f25780638da5cb5b1461054e578063923e5c6a1461056c57806395d89b411461058c5780639d167622146105a1578063a22cb465146105c157600080fd5b806369fe0e2d146104e357806370a0823114610503578063715018a614610523578063787a08a61461053857600080fd5b80632e1a7d4d116101b15780634f6ccce7116101755780634f6ccce71461041e5780634fc3f41a1461043e578063580adaa31461045e5780636352211e1461049657806364332285146104b657600080fd5b80632e1a7d4d1461038b5780632f745c59146103ab578063344f1ba5146103cb578063368004ed146103eb57806342842e0e146103fe57600080fd5b8063095ea7b3116101f8578063095ea7b3146102db57806312065fe0146102fd57806318160ddd1461032057806319b90d271461033557806323b872dd1461036b57600080fd5b806301ffc9a71461022a57806305901e891461025f57806306fdde0314610281578063081812fc146102a3575b600080fd5b34801561023657600080fd5b5061024a610245366004612824565b610747565b60405190151581526020015b60405180910390f35b34801561026b57600080fd5b50610274610758565b6040516102569190612841565b34801561028d57600080fd5b506102966107b0565b60405161025691906128dd565b3480156102af57600080fd5b506102c36102be3660046128f0565b610839565b6040516001600160a01b039091168152602001610256565b3480156102e757600080fd5b506102fb6102f6366004612925565b6108d3565b005b34801561030957600080fd5b506103126109e9565b604051908152602001610256565b34801561032c57600080fd5b50600854610312565b34801561034157600080fd5b506102c36103503660046128f0565b600e602052600090815260409020546001600160a01b031681565b34801561037757600080fd5b506102fb61038636600461294f565b610a1b565b34801561039757600080fd5b506102fb6103a63660046128f0565b610a4c565b3480156103b757600080fd5b506103126103c6366004612925565b610b7d565b3480156103d757600080fd5b506102fb6103e63660046128f0565b610c13565b6102fb6103f93660046128f0565b610c42565b34801561040a57600080fd5b506102fb61041936600461294f565b610f13565b34801561042a57600080fd5b506103126104393660046128f0565b610f2e565b34801561044a57600080fd5b506102fb6104593660046128f0565b610fc1565b34801561046a57600080fd5b5061024a6104793660046128f0565b6000908152600e60205260409020546001600160a01b0316151590565b3480156104a257600080fd5b506102c36104b13660046128f0565b610ff0565b3480156104c257600080fd5b506103126104d13660046128f0565b60106020526000908152604090205481565b3480156104ef57600080fd5b506102fb6104fe3660046128f0565b610ffb565b34801561050f57600080fd5b5061031261051e36600461298b565b61102a565b34801561052f57600080fd5b506102fb6110b1565b34801561054457600080fd5b5061031260155481565b34801561055a57600080fd5b50600a546001600160a01b03166102c3565b34801561057857600080fd5b506103126105873660046128f0565b6110e7565b34801561059857600080fd5b50610296611108565b3480156105ad57600080fd5b506102fb6105bc366004612b53565b611117565b3480156105cd57600080fd5b506102fb6105dc366004612cb9565b611395565b3480156105ed57600080fd5b506102fb6105fc366004612cf5565b6113a4565b34801561060d57600080fd5b5061029661061c3660046128f0565b6113dc565b34801561062d57600080fd5b5061031260185481565b34801561064357600080fd5b5061031260165481565b34801561065957600080fd5b5061031260175481565b34801561066f57600080fd5b5061068361067e3660046128f0565b6114c4565b6040516102569190612dc5565b34801561069c57600080fd5b5061024a6106ab366004612ed0565b6001600160a01b03918216600090815260056020908152604080832093909416825291909152205460ff1690565b3480156106e557600080fd5b506102746106f436600461298b565b61193f565b34801561070557600080fd5b506102fb61071436600461298b565b611a99565b34801561072557600080fd5b5061073961073436600461298b565b611b34565b604051610256929190612f03565b600061075282611bdd565b92915050565b606060138054806020026020016040519081016040528092919081815260200182805480156107a657602002820191906000526020600020905b815481526020019060010190808311610792575b5050505050905090565b6060600080546107bf90612f27565b80601f01602080910402602001604051908101604052809291908181526020018280546107eb90612f27565b80156107a65780601f1061080d576101008083540402835291602001916107a6565b820191906000526020600020905b81548152906001019060200180831161081b57509395945050505050565b6000818152600260205260408120546001600160a01b03166108b75760405162461bcd60e51b815260206004820152602c60248201527f4552433732313a20617070726f76656420717565727920666f72206e6f6e657860448201526b34b9ba32b73a103a37b5b2b760a11b60648201526084015b60405180910390fd5b506000908152600460205260409020546001600160a01b031690565b60006108de82611c02565b9050806001600160a01b0316836001600160a01b0316141561094c5760405162461bcd60e51b815260206004820152602160248201527f4552433732313a20617070726f76616c20746f2063757272656e74206f776e656044820152603960f91b60648201526084016108ae565b336001600160a01b0382161480610968575061096881336106ab565b6109da5760405162461bcd60e51b815260206004820152603860248201527f4552433732313a20617070726f76652063616c6c6572206973206e6f74206f7760448201527f6e6572206e6f7220617070726f76656420666f7220616c6c000000000000000060648201526084016108ae565b6109e48383611c79565b505050565b600a546000906001600160a01b03163314610a165760405162461bcd60e51b81526004016108ae90612f62565b504790565b610a253382611ce7565b610a415760405162461bcd60e51b81526004016108ae90612f97565b6109e4838383611dde565b600a546001600160a01b03163314610a765760405162461bcd60e51b81526004016108ae90612f62565b80471015610ad15760405162461bcd60e51b815260206004820152602260248201527f5468652070726963652069732067726561746572207468616e2062616c616e63604482015261652160f01b60648201526084016108ae565b6040513390600090829084908381818185875af1925050503d8060008114610b15576040519150601f19603f3d011682016040523d82523d6000602084013e610b1a565b606091505b50509050806109e45760405162461bcd60e51b815260206004820152602960248201527f5472616e73616374696f6e206661696c65642c20636f756c64206e6f742073656044820152686e642066756e64732160b81b60648201526084016108ae565b6000610b888361102a565b8210610bea5760405162461bcd60e51b815260206004820152602b60248201527f455243373231456e756d657261626c653a206f776e657220696e646578206f7560448201526a74206f6620626f756e647360a81b60648201526084016108ae565b506001600160a01b03919091166000908152600660209081526040808320938352929052205490565b600a546001600160a01b03163314610c3d5760405162461bcd60e51b81526004016108ae90612f62565b601855565b6015546000828152600d60205260409020600701548291904290610c77908390600160401b90046001600160401b0316612ffe565b1115610cc55760405162461bcd60e51b815260206004820152601c60248201527f436f6f6c646f776e20706572696f64206973206e6f74206f766572210000000060448201526064016108ae565b6018546000848152600d60205260409020600701548490600160801b900461ffff168211610d355760405162461bcd60e51b815260206004820152601d60248201527f506c61796572206861732072656163686564206d6178206c6576656c2100000060448201526064016108ae565b6000858152600e602052604090205485906001600160a01b0316610d935760405162461bcd60e51b8152602060048201526015602482015274141b185e595c88191bd95cc81b9bdd08195e1a5cdd605a1b60448201526064016108ae565b610d9c81610ff0565b6001600160a01b0316336001600160a01b031614610ded5760405162461bcd60e51b815260206004820152600e60248201526d4e6f7420746865206f776e65722160901b60448201526064016108ae565b601654341015610e3f5760405162461bcd60e51b815260206004820152601960248201527f526571756972656420666565206973206e6f742073656e74210000000000000060448201526064016108ae565b6000868152600d602052604090206007018054600160801b900461ffff16906010610e6983613016565b82546101009290920a61ffff818102199093169190921691909102179055506000868152600d6020526040812060070180546fffffffffffffffff00000000000000001916600160401b426001600160401b03160217905560178054349290610ed3908490612ffe565b90915550506040518681527f6a1b6f91db361bdf7356d3942ed64f2ee2fea430979dbba7ea23f44e8b2110079060200160405180910390a1505050505050565b6109e4838383604051806020016040528060008152506113a4565b6000610f3960085490565b8210610f9c5760405162461bcd60e51b815260206004820152602c60248201527f455243373231456e756d657261626c653a20676c6f62616c20696e646578206f60448201526b7574206f6620626f756e647360a01b60648201526084016108ae565b60088281548110610faf57610faf613038565b90600052602060002001549050919050565b600a546001600160a01b03163314610feb5760405162461bcd60e51b81526004016108ae90612f62565b601555565b600061075282611c02565b600a546001600160a01b031633146110255760405162461bcd60e51b81526004016108ae90612f62565b601655565b60006001600160a01b0382166110955760405162461bcd60e51b815260206004820152602a60248201527f4552433732313a2062616c616e636520717565727920666f7220746865207a65604482015269726f206164647265737360b01b60648201526084016108ae565b506001600160a01b031660009081526003602052604090205490565b600a546001600160a01b031633146110db5760405162461bcd60e51b81526004016108ae90612f62565b6110e56000611f85565b565b601381815481106110f757600080fd5b600091825260209091200154905081565b6060600180546107bf90612f27565b600a546001600160a01b031633146111415760405162461bcd60e51b81526004016108ae90612f62565b60c08101516000908152600e60205260409020546001600160a01b03161561119c5760405162461bcd60e51b815260206004820152600e60248201526d506c61796572204578697374732160901b60448201526064016108ae565b6111aa600b80546001019055565b600b5460c082018190526000908152600d602090815260409091208251805184936111d99284929101906126c5565b5060208281015180516111f292600185019201906126c5565b506040820151805161120e9160028401916020909101906126c5565b506060820151805161122a9160038401916020909101906126c5565b50608082015180516112469160048401916020909101906126c5565b5060a08201518051611262916005840191602090910190612749565b5060c082810151600683015560e0830151600790920180546101008501516101209095015161ffff16600160801b0261ffff60801b196001600160401b03968716600160401b026fffffffffffffffffffffffffffffffff1990931696909516959095171792909216929092179055810180516014805460018101825560009182527fce6d7b5282bd9a3661ae061feed1dbda4e52ab073b1f9285be6e155d9c38d4ec019190915590518152600e6020908152604080832080546001600160a01b031916339081179091558352601290915281208054916113428361304e565b9190505550611355338260c00151611fd7565b7f5af403e238a3f8f7d43c05ff2fac53c833e031e8fb8ec011b3c8e073d870ad7b8160c0015160405161138a91815260200190565b60405180910390a150565b6113a0338383612125565b5050565b6113ae3383611ce7565b6113ca5760405162461bcd60e51b81526004016108ae90612f97565b6113d6848484846121f4565b50505050565b6000818152600260205260409020546060906001600160a01b031661145b5760405162461bcd60e51b815260206004820152602f60248201527f4552433732314d657461646174613a2055524920717565727920666f72206e6f60448201526e3732bc34b9ba32b73a103a37b5b2b760891b60648201526084016108ae565b600061147260408051602081019091526000815290565b9050600081511161149257604051806020016040528060008152506114bd565b8061149c84612227565b6040516020016114ad929190613069565b6040516020818303038152906040525b9392505050565b6115306040518061014001604052806060815260200160608152602001606081526020016060815260200160608152602001606081526020016000815260200160006001600160401b0316815260200160006001600160401b03168152602001600061ffff1681525090565b6000828152600d6020526040908190208151610140810190925280548290829061155990612f27565b80601f016020809104026020016040519081016040528092919081815260200182805461158590612f27565b80156115d25780601f106115a7576101008083540402835291602001916115d2565b820191906000526020600020905b8154815290600101906020018083116115b557829003601f168201915b505050505081526020016001820180546115eb90612f27565b80601f016020809104026020016040519081016040528092919081815260200182805461161790612f27565b80156116645780601f1061163957610100808354040283529160200191611664565b820191906000526020600020905b81548152906001019060200180831161164757829003601f168201915b5050505050815260200160028201805461167d90612f27565b80601f01602080910402602001604051908101604052809291908181526020018280546116a990612f27565b80156116f65780601f106116cb576101008083540402835291602001916116f6565b820191906000526020600020905b8154815290600101906020018083116116d957829003601f168201915b5050505050815260200160038201805461170f90612f27565b80601f016020809104026020016040519081016040528092919081815260200182805461173b90612f27565b80156117885780601f1061175d57610100808354040283529160200191611788565b820191906000526020600020905b81548152906001019060200180831161176b57829003601f168201915b505050505081526020016004820180546117a190612f27565b80601f01602080910402602001604051908101604052809291908181526020018280546117cd90612f27565b801561181a5780601f106117ef5761010080835404028352916020019161181a565b820191906000526020600020905b8154815290600101906020018083116117fd57829003601f168201915b5050505050815260200160058201805480602002602001604051908101604052809291908181526020016000905b828210156118f457838290600052602060002001805461186790612f27565b80601f016020809104026020016040519081016040528092919081815260200182805461189390612f27565b80156118e05780601f106118b5576101008083540402835291602001916118e0565b820191906000526020600020905b8154815290600101906020018083116118c357829003601f168201915b505050505081526020019060010190611848565b50505090825250600682015460208201526007909101546001600160401b038082166040840152600160401b8204166060830152600160801b900461ffff1660809091015292915050565b6001600160a01b038116600090815260126020526040812054606091906001600160401b03811115611973576119736129a6565b60405190808252806020026020018201604052801561199c578160200160208202803683370190505b5090506000805b601454811015611a9057846001600160a01b0316600e6000601484815481106119ce576119ce613038565b600091825260208083209091015483528201929092526040019020546001600160a01b0316148015611a305750600f600060148381548110611a1257611a12613038565b90600052602060002001548152602001908152602001600020546000145b15611a7e5760148181548110611a4857611a48613038565b9060005260206000200154838381518110611a6557611a65613038565b602090810291909101015281611a7a8161304e565b9250505b80611a888161304e565b9150506119a3565b50909392505050565b600a546001600160a01b03163314611ac35760405162461bcd60e51b81526004016108ae90612f62565b6001600160a01b038116611b285760405162461bcd60e51b815260206004820152602660248201527f4f776e61626c653a206e6577206f776e657220697320746865207a65726f206160448201526564647265737360d01b60648201526084016108ae565b611b3181611f85565b50565b6011602052600090815260409020601681018054611b5190612f27565b80601f0160208091040260200160405190810160405280929190818152602001828054611b7d90612f27565b8015611bca5780601f10611b9f57610100808354040283529160200191611bca565b820191906000526020600020905b815481529060010190602001808311611bad57829003601f168201915b5050506017909301549192505060ff1682565b60006001600160e01b0319821663780e9d6360e01b1480610752575061075282612324565b6000818152600260205260408120546001600160a01b0316806107525760405162461bcd60e51b815260206004820152602960248201527f4552433732313a206f776e657220717565727920666f72206e6f6e657869737460448201526832b73a103a37b5b2b760b91b60648201526084016108ae565b600081815260046020526040902080546001600160a01b0319166001600160a01b0384169081179091558190611cae82611c02565b6001600160a01b03167f8c5be1e5ebec7d5bd14f71427d1e84f3dd0314c0f7b2291e5b200ac8c7c3b92560405160405180910390a45050565b6000818152600260205260408120546001600160a01b0316611d605760405162461bcd60e51b815260206004820152602c60248201527f4552433732313a206f70657261746f7220717565727920666f72206e6f6e657860448201526b34b9ba32b73a103a37b5b2b760a11b60648201526084016108ae565b6000611d6b83611c02565b9050806001600160a01b0316846001600160a01b03161480611da65750836001600160a01b0316611d9b84610839565b6001600160a01b0316145b80611dd657506001600160a01b0380821660009081526005602090815260408083209388168352929052205460ff165b949350505050565b826001600160a01b0316611df182611c02565b6001600160a01b031614611e555760405162461bcd60e51b815260206004820152602560248201527f4552433732313a207472616e736665722066726f6d20696e636f72726563742060448201526437bbb732b960d91b60648201526084016108ae565b6001600160a01b038216611eb75760405162461bcd60e51b8152602060048201526024808201527f4552433732313a207472616e7366657220746f20746865207a65726f206164646044820152637265737360e01b60648201526084016108ae565b611ec2838383612374565b611ecd600082611c79565b6001600160a01b0383166000908152600360205260408120805460019290611ef6908490613098565b90915550506001600160a01b0382166000908152600360205260408120805460019290611f24908490612ffe565b909155505060008181526002602052604080822080546001600160a01b0319166001600160a01b0386811691821790925591518493918716917fddf252ad1be2c89b69c2b068fc378daa952ba7f163c4a11628f55a4df523b3ef91a4505050565b600a80546001600160a01b038381166001600160a01b0319831681179093556040519116919082907f8be0079c531659141344cd1fd0a4f28419497f9722a3daafe3b4186f6b6457e090600090a35050565b6001600160a01b03821661202d5760405162461bcd60e51b815260206004820181905260248201527f4552433732313a206d696e7420746f20746865207a65726f206164647265737360448201526064016108ae565b6000818152600260205260409020546001600160a01b0316156120925760405162461bcd60e51b815260206004820152601c60248201527f4552433732313a20746f6b656e20616c7265616479206d696e7465640000000060448201526064016108ae565b61209e60008383612374565b6001600160a01b03821660009081526003602052604081208054600192906120c7908490612ffe565b909155505060008181526002602052604080822080546001600160a01b0319166001600160a01b03861690811790915590518392907fddf252ad1be2c89b69c2b068fc378daa952ba7f163c4a11628f55a4df523b3ef908290a45050565b816001600160a01b0316836001600160a01b031614156121875760405162461bcd60e51b815260206004820152601960248201527f4552433732313a20617070726f766520746f2063616c6c65720000000000000060448201526064016108ae565b6001600160a01b03838116600081815260056020908152604080832094871680845294825291829020805460ff191686151590811790915591519182527f17307eab39ab6107e8899845ad3d59bd9653f200f220920489ca2b5937696c31910160405180910390a3505050565b6121ff848484611dde565b61220b8484848461237f565b6113d65760405162461bcd60e51b81526004016108ae906130af565b60608161224b5750506040805180820190915260018152600360fc1b602082015290565b8160005b8115612275578061225f8161304e565b915061226e9050600a83613117565b915061224f565b6000816001600160401b0381111561228f5761228f6129a6565b6040519080825280601f01601f1916602001820160405280156122b9576020820181803683370190505b5090505b8415611dd6576122ce600183613098565b91506122db600a8661312b565b6122e6906030612ffe565b60f81b8183815181106122fb576122fb613038565b60200101906001600160f81b031916908160001a90535061231d600a86613117565b94506122bd565b60006001600160e01b031982166380ac58cd60e01b148061235557506001600160e01b03198216635b5e139f60e01b145b8061075257506301ffc9a760e01b6001600160e01b0319831614610752565b6109e483838361247d565b60006001600160a01b0384163b1561247257604051630a85bd0160e11b81526001600160a01b0385169063150b7a02906123c390339089908890889060040161313f565b6020604051808303816000875af19250505080156123fe575060408051601f3d908101601f191682019092526123fb9181019061317c565b60015b612458573d80801561242c576040519150601f19603f3d011682016040523d82523d6000602084013e612431565b606091505b5080516124505760405162461bcd60e51b81526004016108ae906130af565b805181602001fd5b6001600160e01b031916630a85bd0160e11b149050611dd6565b506001949350505050565b6001600160a01b0383166124d8576124d381600880546000838152600960205260408120829055600182018355919091527ff3f7a9fe364faab93b216da50a3214154f22a0a2b415b23a84c8169e8b636ee30155565b6124fb565b816001600160a01b0316836001600160a01b0316146124fb576124fb8382612535565b6001600160a01b038216612512576109e4816125d2565b826001600160a01b0316826001600160a01b0316146109e4576109e48282612681565b600060016125428461102a565b61254c9190613098565b60008381526007602052604090205490915080821461259f576001600160a01b03841660009081526006602090815260408083208584528252808320548484528184208190558352600790915290208190555b5060009182526007602090815260408084208490556001600160a01b039094168352600681528383209183525290812055565b6008546000906125e490600190613098565b6000838152600960205260408120546008805493945090928490811061260c5761260c613038565b90600052602060002001549050806008838154811061262d5761262d613038565b600091825260208083209091019290925582815260099091526040808220849055858252812055600880548061266557612665613199565b6001900381819060005260206000200160009055905550505050565b600061268c8361102a565b6001600160a01b039093166000908152600660209081526040808320868452825280832085905593825260079052919091209190915550565b8280546126d190612f27565b90600052602060002090601f0160209004810192826126f35760008555612739565b82601f1061270c57805160ff1916838001178555612739565b82800160010185558215612739579182015b8281111561273957825182559160200191906001019061271e565b506127459291506127a2565b5090565b828054828255906000526020600020908101928215612796579160200282015b8281111561279657825180516127869184916020909101906126c5565b5091602001919060010190612769565b506127459291506127b7565b5b8082111561274557600081556001016127a3565b808211156127455760006127cb82826127d4565b506001016127b7565b5080546127e090612f27565b6000825580601f106127f0575050565b601f016020900490600052602060002090810190611b3191906127a2565b6001600160e01b031981168114611b3157600080fd5b60006020828403121561283657600080fd5b81356114bd8161280e565b6020808252825182820181905260009190848201906040850190845b818110156128795783518352928401929184019160010161285d565b50909695505050505050565b60005b838110156128a0578181015183820152602001612888565b838111156113d65750506000910152565b600081518084526128c9816020860160208601612885565b601f01601f19169290920160200192915050565b6020815260006114bd60208301846128b1565b60006020828403121561290257600080fd5b5035919050565b80356001600160a01b038116811461292057600080fd5b919050565b6000806040838503121561293857600080fd5b61294183612909565b946020939093013593505050565b60008060006060848603121561296457600080fd5b61296d84612909565b925061297b60208501612909565b9150604084013590509250925092565b60006020828403121561299d57600080fd5b6114bd82612909565b634e487b7160e01b600052604160045260246000fd5b60405161014081016001600160401b03811182821017156129df576129df6129a6565b60405290565b604051601f8201601f191681016001600160401b0381118282101715612a0d57612a0d6129a6565b604052919050565b60006001600160401b03831115612a2e57612a2e6129a6565b612a41601f8401601f19166020016129e5565b9050828152838383011115612a5557600080fd5b828260208301376000602084830101529392505050565b600082601f830112612a7d57600080fd5b6114bd83833560208501612a15565b600082601f830112612a9d57600080fd5b813560206001600160401b0380831115612ab957612ab96129a6565b8260051b612ac88382016129e5565b9384528581018301938381019088861115612ae257600080fd5b84880192505b85831015612b1e57823584811115612b005760008081fd5b612b0e8a87838c0101612a6c565b8352509184019190840190612ae8565b98975050505050505050565b80356001600160401b038116811461292057600080fd5b803561ffff8116811461292057600080fd5b600060208284031215612b6557600080fd5b81356001600160401b0380821115612b7c57600080fd5b908301906101408286031215612b9157600080fd5b612b996129bc565b823582811115612ba857600080fd5b612bb487828601612a6c565b825250602083013582811115612bc957600080fd5b612bd587828601612a6c565b602083015250604083013582811115612bed57600080fd5b612bf987828601612a6c565b604083015250606083013582811115612c1157600080fd5b612c1d87828601612a6c565b606083015250608083013582811115612c3557600080fd5b612c4187828601612a6c565b60808301525060a083013582811115612c5957600080fd5b612c6587828601612a8c565b60a08301525060c083013560c0820152612c8160e08401612b2a565b60e08201526101009150612c96828401612b2a565b828201526101209150612caa828401612b41565b91810191909152949350505050565b60008060408385031215612ccc57600080fd5b612cd583612909565b915060208301358015158114612cea57600080fd5b809150509250929050565b60008060008060808587031215612d0b57600080fd5b612d1485612909565b9350612d2260208601612909565b92506040850135915060608501356001600160401b03811115612d4457600080fd5b8501601f81018713612d5557600080fd5b612d6487823560208401612a15565b91505092959194509250565b600081518084526020808501808196508360051b8101915082860160005b85811015612db8578284038952612da68483516128b1565b98850198935090840190600101612d8e565b5091979650505050505050565b6020815260008251610140806020850152612de46101608501836128b1565b91506020850151601f1980868503016040870152612e0284836128b1565b93506040870151915080868503016060870152612e1f84836128b1565b93506060870151915080868503016080870152612e3c84836128b1565b935060808701519150808685030160a0870152612e5984836128b1565b935060a08701519150808685030160c087015250612e778382612d70565b92505060c085015160e085015260e0850151610100612ea0818701836001600160401b03169052565b8601519050610120612ebc868201836001600160401b03169052565b9095015161ffff1693019290925250919050565b60008060408385031215612ee357600080fd5b612eec83612909565b9150612efa60208401612909565b90509250929050565b604081526000612f1660408301856128b1565b905082151560208301529392505050565b600181811c90821680612f3b57607f821691505b60208210811415612f5c57634e487b7160e01b600052602260045260246000fd5b50919050565b6020808252818101527f4f776e61626c653a2063616c6c6572206973206e6f7420746865206f776e6572604082015260600190565b60208082526031908201527f4552433732313a207472616e736665722063616c6c6572206973206e6f74206f6040820152701ddb995c881b9bdc88185c1c1c9bdd9959607a1b606082015260800190565b634e487b7160e01b600052601160045260246000fd5b6000821982111561301157613011612fe8565b500190565b600061ffff8083168181141561302e5761302e612fe8565b6001019392505050565b634e487b7160e01b600052603260045260246000fd5b600060001982141561306257613062612fe8565b5060010190565b6000835161307b818460208801612885565b83519083019061308f818360208801612885565b01949350505050565b6000828210156130aa576130aa612fe8565b500390565b60208082526032908201527f4552433732313a207472616e7366657220746f206e6f6e20455243373231526560408201527131b2b4bb32b91034b6b83632b6b2b73a32b960711b606082015260800190565b634e487b7160e01b600052601260045260246000fd5b60008261312657613126613101565b500490565b60008261313a5761313a613101565b500690565b6001600160a01b0385811682528416602082015260408101839052608060608201819052600090613172908301846128b1565b9695505050505050565b60006020828403121561318e57600080fd5b81516114bd8161280e565b634e487b7160e01b600052603160045260246000fdfea26469706673582212207651a2479675f3ab3b4d7c0b3b1e7ac6f2f824bd1d058a47f68aa7746b16731664736f6c634300080c0033",
  "linkReferences": {},
  "deployedLinkReferences": {}
}